{
    "_format": "hh-sol-artifact-1",
    "contractName": "ItemNFT",
    "sourceName": "contracts/nfts/ItemNFT.sol",
    "abi": [
        {
            "inputs": [
                {
                    "internalType": "address",
                    "name": "initialOwner",
                    "type": "address"
                }
            ],
            "stateMutability": "nonpayable",
            "type": "constructor"
        },
        {
            "inputs": [
                {
                    "internalType": "address",
                    "name": "sender",
                    "type": "address"
                },
                {
                    "internalType": "uint256",
                    "name": "tokenId",
                    "type": "uint256"
                },
                {
                    "internalType": "address",
                    "name": "owner",
                    "type": "address"
                }
            ],
            "name": "ERC721IncorrectOwner",
            "type": "error"
        },
        {
            "inputs": [
                {
                    "internalType": "address",
                    "name": "operator",
                    "type": "address"
                },
                {
                    "internalType": "uint256",
                    "name": "tokenId",
                    "type": "uint256"
                }
            ],
            "name": "ERC721InsufficientApproval",
            "type": "error"
        },
        {
            "inputs": [
                {
                    "internalType": "address",
                    "name": "approver",
                    "type": "address"
                }
            ],
            "name": "ERC721InvalidApprover",
            "type": "error"
        },
        {
            "inputs": [
                {
                    "internalType": "address",
                    "name": "operator",
                    "type": "address"
                }
            ],
            "name": "ERC721InvalidOperator",
            "type": "error"
        },
        {
            "inputs": [
                {
                    "internalType": "address",
                    "name": "owner",
                    "type": "address"
                }
            ],
            "name": "ERC721InvalidOwner",
            "type": "error"
        },
        {
            "inputs": [
                {
                    "internalType": "address",
                    "name": "receiver",
                    "type": "address"
                }
            ],
            "name": "ERC721InvalidReceiver",
            "type": "error"
        },
        {
            "inputs": [
                {
                    "internalType": "address",
                    "name": "sender",
                    "type": "address"
                }
            ],
            "name": "ERC721InvalidSender",
            "type": "error"
        },
        {
            "inputs": [
                {
                    "internalType": "uint256",
                    "name": "tokenId",
                    "type": "uint256"
                }
            ],
            "name": "ERC721NonexistentToken",
            "type": "error"
        },
        {
            "inputs": [
                {
                    "internalType": "address",
                    "name": "owner",
                    "type": "address"
                }
            ],
            "name": "OwnableInvalidOwner",
            "type": "error"
        },
        {
            "inputs": [
                {
                    "internalType": "address",
                    "name": "account",
                    "type": "address"
                }
            ],
            "name": "OwnableUnauthorizedAccount",
            "type": "error"
        },
        {
            "anonymous": false,
            "inputs": [
                {
                    "indexed": true,
                    "internalType": "address",
                    "name": "owner",
                    "type": "address"
                },
                {
                    "indexed": true,
                    "internalType": "address",
                    "name": "approved",
                    "type": "address"
                },
                {
                    "indexed": true,
                    "internalType": "uint256",
                    "name": "tokenId",
                    "type": "uint256"
                }
            ],
            "name": "Approval",
            "type": "event"
        },
        {
            "anonymous": false,
            "inputs": [
                {
                    "indexed": true,
                    "internalType": "address",
                    "name": "owner",
                    "type": "address"
                },
                {
                    "indexed": true,
                    "internalType": "address",
                    "name": "operator",
                    "type": "address"
                },
                {
                    "indexed": false,
                    "internalType": "bool",
                    "name": "approved",
                    "type": "bool"
                }
            ],
            "name": "ApprovalForAll",
            "type": "event"
        },
        {
            "anonymous": false,
            "inputs": [
                {
                    "indexed": false,
                    "internalType": "uint256",
                    "name": "_fromTokenId",
                    "type": "uint256"
                },
                {
                    "indexed": false,
                    "internalType": "uint256",
                    "name": "_toTokenId",
                    "type": "uint256"
                }
            ],
            "name": "BatchMetadataUpdate",
            "type": "event"
        },
        {
            "anonymous": false,
            "inputs": [
                {
                    "indexed": false,
                    "internalType": "uint256",
                    "name": "_tokenId",
                    "type": "uint256"
                }
            ],
            "name": "MetadataUpdate",
            "type": "event"
        },
        {
            "anonymous": false,
            "inputs": [
                {
                    "indexed": true,
                    "internalType": "address",
                    "name": "previousOwner",
                    "type": "address"
                },
                {
                    "indexed": true,
                    "internalType": "address",
                    "name": "newOwner",
                    "type": "address"
                }
            ],
            "name": "OwnershipTransferred",
            "type": "event"
        },
        {
            "anonymous": false,
            "inputs": [
                {
                    "indexed": true,
                    "internalType": "address",
                    "name": "from",
                    "type": "address"
                },
                {
                    "indexed": true,
                    "internalType": "address",
                    "name": "to",
                    "type": "address"
                },
                {
                    "indexed": true,
                    "internalType": "uint256",
                    "name": "tokenId",
                    "type": "uint256"
                }
            ],
            "name": "Transfer",
            "type": "event"
        },
        {
            "inputs": [
                {
                    "internalType": "address",
                    "name": "to",
                    "type": "address"
                },
                {
                    "internalType": "uint256",
                    "name": "tokenId",
                    "type": "uint256"
                }
            ],
            "name": "approve",
            "outputs": [],
            "stateMutability": "nonpayable",
            "type": "function"
        },
        {
            "inputs": [
                {
                    "internalType": "address",
                    "name": "owner",
                    "type": "address"
                }
            ],
            "name": "balanceOf",
            "outputs": [
                {
                    "internalType": "uint256",
                    "name": "",
                    "type": "uint256"
                }
            ],
            "stateMutability": "view",
            "type": "function"
        },
        {
            "inputs": [
                {
                    "internalType": "uint256",
                    "name": "tokenId",
                    "type": "uint256"
                }
            ],
            "name": "burn",
            "outputs": [],
            "stateMutability": "nonpayable",
            "type": "function"
        },
        {
            "inputs": [
                {
                    "internalType": "uint256",
                    "name": "tokenId",
                    "type": "uint256"
                }
            ],
            "name": "getApproved",
            "outputs": [
                {
                    "internalType": "address",
                    "name": "",
                    "type": "address"
                }
            ],
            "stateMutability": "view",
            "type": "function"
        },
        {
            "inputs": [
                {
                    "internalType": "address",
                    "name": "owner",
                    "type": "address"
                },
                {
                    "internalType": "address",
                    "name": "operator",
                    "type": "address"
                }
            ],
            "name": "isApprovedForAll",
            "outputs": [
                {
                    "internalType": "bool",
                    "name": "",
                    "type": "bool"
                }
            ],
            "stateMutability": "view",
            "type": "function"
        },
        {
            "inputs": [],
            "name": "name",
            "outputs": [
                {
                    "internalType": "string",
                    "name": "",
                    "type": "string"
                }
            ],
            "stateMutability": "view",
            "type": "function"
        },
        {
            "inputs": [],
            "name": "owner",
            "outputs": [
                {
                    "internalType": "address",
                    "name": "",
                    "type": "address"
                }
            ],
            "stateMutability": "view",
            "type": "function"
        },
        {
            "inputs": [
                {
                    "internalType": "uint256",
                    "name": "tokenId",
                    "type": "uint256"
                }
            ],
            "name": "ownerOf",
            "outputs": [
                {
                    "internalType": "address",
                    "name": "",
                    "type": "address"
                }
            ],
            "stateMutability": "view",
            "type": "function"
        },
        {
            "inputs": [],
            "name": "renounceOwnership",
            "outputs": [],
            "stateMutability": "nonpayable",
            "type": "function"
        },
        {
            "inputs": [
                {
                    "internalType": "address",
                    "name": "to",
                    "type": "address"
                },
                {
                    "internalType": "uint256",
                    "name": "tokenId",
                    "type": "uint256"
                },
                {
                    "internalType": "string",
                    "name": "uri",
                    "type": "string"
                }
            ],
            "name": "safeMint",
            "outputs": [],
            "stateMutability": "nonpayable",
            "type": "function"
        },
        {
            "inputs": [
                {
                    "internalType": "address",
                    "name": "from",
                    "type": "address"
                },
                {
                    "internalType": "address",
                    "name": "to",
                    "type": "address"
                },
                {
                    "internalType": "uint256",
                    "name": "tokenId",
                    "type": "uint256"
                }
            ],
            "name": "safeTransferFrom",
            "outputs": [],
            "stateMutability": "nonpayable",
            "type": "function"
        },
        {
            "inputs": [
                {
                    "internalType": "address",
                    "name": "from",
                    "type": "address"
                },
                {
                    "internalType": "address",
                    "name": "to",
                    "type": "address"
                },
                {
                    "internalType": "uint256",
                    "name": "tokenId",
                    "type": "uint256"
                },
                {
                    "internalType": "bytes",
                    "name": "data",
                    "type": "bytes"
                }
            ],
            "name": "safeTransferFrom",
            "outputs": [],
            "stateMutability": "nonpayable",
            "type": "function"
        },
        {
            "inputs": [
                {
                    "internalType": "address",
                    "name": "operator",
                    "type": "address"
                },
                {
                    "internalType": "bool",
                    "name": "approved",
                    "type": "bool"
                }
            ],
            "name": "setApprovalForAll",
            "outputs": [],
            "stateMutability": "nonpayable",
            "type": "function"
        },
        {
            "inputs": [
                {
                    "internalType": "uint256",
                    "name": "tokenId",
                    "type": "uint256"
                },
                {
                    "internalType": "string",
                    "name": "uri",
                    "type": "string"
                }
            ],
            "name": "setTokenURI",
            "outputs": [],
            "stateMutability": "nonpayable",
            "type": "function"
        },
        {
            "inputs": [
                {
                    "internalType": "bytes4",
                    "name": "interfaceId",
                    "type": "bytes4"
                }
            ],
            "name": "supportsInterface",
            "outputs": [
                {
                    "internalType": "bool",
                    "name": "",
                    "type": "bool"
                }
            ],
            "stateMutability": "view",
            "type": "function"
        },
        {
            "inputs": [],
            "name": "symbol",
            "outputs": [
                {
                    "internalType": "string",
                    "name": "",
                    "type": "string"
                }
            ],
            "stateMutability": "view",
            "type": "function"
        },
        {
            "inputs": [
                {
                    "internalType": "uint256",
                    "name": "tokenId",
                    "type": "uint256"
                }
            ],
            "name": "tokenURI",
            "outputs": [
                {
                    "internalType": "string",
                    "name": "",
                    "type": "string"
                }
            ],
            "stateMutability": "view",
            "type": "function"
        },
        {
            "inputs": [
                {
                    "internalType": "address",
                    "name": "from",
                    "type": "address"
                },
                {
                    "internalType": "address",
                    "name": "to",
                    "type": "address"
                },
                {
                    "internalType": "uint256",
                    "name": "tokenId",
                    "type": "uint256"
                }
            ],
            "name": "transferFrom",
            "outputs": [],
            "stateMutability": "nonpayable",
            "type": "function"
        },
        {
            "inputs": [
                {
                    "internalType": "address",
                    "name": "newOwner",
                    "type": "address"
                }
            ],
            "name": "transferOwnership",
            "outputs": [],
            "stateMutability": "nonpayable",
            "type": "function"
        }
    ],
    "bytecode": "0x60806040523480156200001157600080fd5b5060405162002d2f38038062002d2f833981810160405281019062000037919062000288565b806040518060400160405280600781526020017f4974656d4e4654000000000000000000000000000000000000000000000000008152506040518060400160405280600381526020017f494e5400000000000000000000000000000000000000000000000000000000008152508160009081620000b5919062000534565b508060019081620000c7919062000534565b505050600073ffffffffffffffffffffffffffffffffffffffff168173ffffffffffffffffffffffffffffffffffffffff16036200013f5760006040517f1e4fbdf70000000000000000000000000000000000000000000000000000000081526004016200013691906200062c565b60405180910390fd5b62000150816200015860201b60201c565b505062000649565b6000600760009054906101000a900473ffffffffffffffffffffffffffffffffffffffff16905081600760006101000a81548173ffffffffffffffffffffffffffffffffffffffff021916908373ffffffffffffffffffffffffffffffffffffffff1602179055508173ffffffffffffffffffffffffffffffffffffffff168173ffffffffffffffffffffffffffffffffffffffff167f8be0079c531659141344cd1fd0a4f28419497f9722a3daafe3b4186f6b6457e060405160405180910390a35050565b600080fd5b600073ffffffffffffffffffffffffffffffffffffffff82169050919050565b6000620002508262000223565b9050919050565b620002628162000243565b81146200026e57600080fd5b50565b600081519050620002828162000257565b92915050565b600060208284031215620002a157620002a06200021e565b5b6000620002b18482850162000271565b91505092915050565b600081519050919050565b7f4e487b7100000000000000000000000000000000000000000000000000000000600052604160045260246000fd5b7f4e487b7100000000000000000000000000000000000000000000000000000000600052602260045260246000fd5b600060028204905060018216806200033c57607f821691505b602082108103620003525762000351620002f4565b5b50919050565b60008190508160005260206000209050919050565b60006020601f8301049050919050565b600082821b905092915050565b600060088302620003bc7fffffffffffffffffffffffffffffffffffffffffffffffffffffffffffffffff826200037d565b620003c886836200037d565b95508019841693508086168417925050509392505050565b6000819050919050565b6000819050919050565b6000620004156200040f6200040984620003e0565b620003ea565b620003e0565b9050919050565b6000819050919050565b6200043183620003f4565b6200044962000440826200041c565b8484546200038a565b825550505050565b600090565b6200046062000451565b6200046d81848462000426565b505050565b5b8181101562000495576200048960008262000456565b60018101905062000473565b5050565b601f821115620004e457620004ae8162000358565b620004b9846200036d565b81016020851015620004c9578190505b620004e1620004d8856200036d565b83018262000472565b50505b505050565b600082821c905092915050565b60006200050960001984600802620004e9565b1980831691505092915050565b6000620005248383620004f6565b9150826002028217905092915050565b6200053f82620002ba565b67ffffffffffffffff8111156200055b576200055a620002c5565b5b62000567825462000323565b6200057482828562000499565b600060209050601f831160018114620005ac576000841562000597578287015190505b620005a3858262000516565b86555062000613565b601f198416620005bc8662000358565b60005b82811015620005e657848901518255600182019150602085019450602081019050620005bf565b8683101562000606578489015162000602601f891682620004f6565b8355505b6001600288020188555050505b505050505050565b620006268162000243565b82525050565b60006020820190506200064360008301846200061b565b92915050565b6126d680620006596000396000f3fe608060405234801561001057600080fd5b50600436106101215760003560e01c806370a08231116100ad578063b88d4fde11610071578063b88d4fde146102f2578063c87b56dd1461030e578063cd279c7c1461033e578063e985e9c51461035a578063f2fde38b1461038a57610121565b806370a0823114610260578063715018a6146102905780638da5cb5b1461029a57806395d89b41146102b8578063a22cb465146102d657610121565b8063162094c4116100f4578063162094c4146101c057806323b872dd146101dc57806342842e0e146101f857806342966c68146102145780636352211e1461023057610121565b806301ffc9a71461012657806306fdde0314610156578063081812fc14610174578063095ea7b3146101a4575b600080fd5b610140600480360381019061013b9190611b36565b6103a6565b60405161014d9190611b7e565b60405180910390f35b61015e6103b8565b60405161016b9190611c29565b60405180910390f35b61018e60048036038101906101899190611c81565b61044a565b60405161019b9190611cef565b60405180910390f35b6101be60048036038101906101b99190611d36565b610466565b005b6101da60048036038101906101d59190611eab565b61047c565b005b6101f660048036038101906101f19190611f07565b610492565b005b610212600480360381019061020d9190611f07565b610594565b005b61022e60048036038101906102299190611c81565b6105b4565b005b61024a60048036038101906102459190611c81565b6105cb565b6040516102579190611cef565b60405180910390f35b61027a60048036038101906102759190611f5a565b6105dd565b6040516102879190611f96565b60405180910390f35b610298610697565b005b6102a26106ab565b6040516102af9190611cef565b60405180910390f35b6102c06106d5565b6040516102cd9190611c29565b60405180910390f35b6102f060048036038101906102eb9190611fdd565b610767565b005b61030c600480360381019061030791906120be565b61077d565b005b61032860048036038101906103239190611c81565b61079a565b6040516103359190611c29565b60405180910390f35b61035860048036038101906103539190612141565b6107ac565b005b610374600480360381019061036f91906121b0565b6107cd565b6040516103819190611b7e565b60405180910390f35b6103a4600480360381019061039f9190611f5a565b610861565b005b60006103b1826108e7565b9050919050565b6060600080546103c79061221f565b80601f01602080910402602001604051908101604052809291908181526020018280546103f39061221f565b80156104405780601f1061041557610100808354040283529160200191610440565b820191906000526020600020905b81548152906001019060200180831161042357829003601f168201915b5050505050905090565b600061045582610948565b5061045f826109d0565b9050919050565b6104788282610473610a0d565b610a15565b5050565b610484610a27565b61048e8282610aae565b5050565b600073ffffffffffffffffffffffffffffffffffffffff168273ffffffffffffffffffffffffffffffffffffffff16036105045760006040517f64a0ae920000000000000000000000000000000000000000000000000000000081526004016104fb9190611cef565b60405180910390fd5b60006105188383610513610a0d565b610b0a565b90508373ffffffffffffffffffffffffffffffffffffffff168173ffffffffffffffffffffffffffffffffffffffff161461058e578382826040517f64283d7b00000000000000000000000000000000000000000000000000000000815260040161058593929190612250565b60405180910390fd5b50505050565b6105af8383836040518060200160405280600081525061077d565b505050565b6105c76000826105c2610a0d565b610b0a565b5050565b60006105d682610948565b9050919050565b60008073ffffffffffffffffffffffffffffffffffffffff168273ffffffffffffffffffffffffffffffffffffffff16036106505760006040517f89c62b640000000000000000000000000000000000000000000000000000000081526004016106479190611cef565b60405180910390fd5b600360008373ffffffffffffffffffffffffffffffffffffffff1673ffffffffffffffffffffffffffffffffffffffff168152602001908152602001600020549050919050565b61069f610a27565b6106a96000610d24565b565b6000600760009054906101000a900473ffffffffffffffffffffffffffffffffffffffff16905090565b6060600180546106e49061221f565b80601f01602080910402602001604051908101604052809291908181526020018280546107109061221f565b801561075d5780601f106107325761010080835404028352916020019161075d565b820191906000526020600020905b81548152906001019060200180831161074057829003601f168201915b5050505050905090565b610779610772610a0d565b8383610dea565b5050565b610788848484610492565b61079484848484610f59565b50505050565b60606107a582611110565b9050919050565b6107b4610a27565b6107be8383611223565b6107c88282610aae565b505050565b6000600560008473ffffffffffffffffffffffffffffffffffffffff1673ffffffffffffffffffffffffffffffffffffffff16815260200190815260200160002060008373ffffffffffffffffffffffffffffffffffffffff1673ffffffffffffffffffffffffffffffffffffffff16815260200190815260200160002060009054906101000a900460ff16905092915050565b610869610a27565b600073ffffffffffffffffffffffffffffffffffffffff168173ffffffffffffffffffffffffffffffffffffffff16036108db5760006040517f1e4fbdf70000000000000000000000000000000000000000000000000000000081526004016108d29190611cef565b60405180910390fd5b6108e481610d24565b50565b6000634906490660e01b7bffffffffffffffffffffffffffffffffffffffffffffffffffffffff1916827bffffffffffffffffffffffffffffffffffffffffffffffffffffffff19161480610941575061094082611241565b5b9050919050565b60008061095483611323565b9050600073ffffffffffffffffffffffffffffffffffffffff168173ffffffffffffffffffffffffffffffffffffffff16036109c757826040517f7e2732890000000000000000000000000000000000000000000000000000000081526004016109be9190611f96565b60405180910390fd5b80915050919050565b60006004600083815260200190815260200160002060009054906101000a900473ffffffffffffffffffffffffffffffffffffffff169050919050565b600033905090565b610a228383836001611360565b505050565b610a2f610a0d565b73ffffffffffffffffffffffffffffffffffffffff16610a4d6106ab565b73ffffffffffffffffffffffffffffffffffffffff1614610aac57610a70610a0d565b6040517f118cdaa7000000000000000000000000000000000000000000000000000000008152600401610aa39190611cef565b60405180910390fd5b565b80600660008481526020019081526020016000209081610ace9190612433565b507ff8e1a15aba9398e019f0b49df1a4fde98ee17ae345cb5f6b5e2c27f5033e8ce782604051610afe9190611f96565b60405180910390a15050565b600080610b1684611323565b9050600073ffffffffffffffffffffffffffffffffffffffff168373ffffffffffffffffffffffffffffffffffffffff1614610b5857610b57818486611525565b5b600073ffffffffffffffffffffffffffffffffffffffff168173ffffffffffffffffffffffffffffffffffffffff1614610be957610b9a600085600080611360565b6001600360008373ffffffffffffffffffffffffffffffffffffffff1673ffffffffffffffffffffffffffffffffffffffff168152602001908152602001600020600082825403925050819055505b600073ffffffffffffffffffffffffffffffffffffffff168573ffffffffffffffffffffffffffffffffffffffff1614610c6c576001600360008773ffffffffffffffffffffffffffffffffffffffff1673ffffffffffffffffffffffffffffffffffffffff168152602001908152602001600020600082825401925050819055505b846002600086815260200190815260200160002060006101000a81548173ffffffffffffffffffffffffffffffffffffffff021916908373ffffffffffffffffffffffffffffffffffffffff160217905550838573ffffffffffffffffffffffffffffffffffffffff168273ffffffffffffffffffffffffffffffffffffffff167fddf252ad1be2c89b69c2b068fc378daa952ba7f163c4a11628f55a4df523b3ef60405160405180910390a4809150509392505050565b6000600760009054906101000a900473ffffffffffffffffffffffffffffffffffffffff16905081600760006101000a81548173ffffffffffffffffffffffffffffffffffffffff021916908373ffffffffffffffffffffffffffffffffffffffff1602179055508173ffffffffffffffffffffffffffffffffffffffff168173ffffffffffffffffffffffffffffffffffffffff167f8be0079c531659141344cd1fd0a4f28419497f9722a3daafe3b4186f6b6457e060405160405180910390a35050565b600073ffffffffffffffffffffffffffffffffffffffff168273ffffffffffffffffffffffffffffffffffffffff1603610e5b57816040517f5b08ba18000000000000000000000000000000000000000000000000000000008152600401610e529190611cef565b60405180910390fd5b80600560008573ffffffffffffffffffffffffffffffffffffffff1673ffffffffffffffffffffffffffffffffffffffff16815260200190815260200160002060008473ffffffffffffffffffffffffffffffffffffffff1673ffffffffffffffffffffffffffffffffffffffff16815260200190815260200160002060006101000a81548160ff0219169083151502179055508173ffffffffffffffffffffffffffffffffffffffff168373ffffffffffffffffffffffffffffffffffffffff167f17307eab39ab6107e8899845ad3d59bd9653f200f220920489ca2b5937696c3183604051610f4c9190611b7e565b60405180910390a3505050565b60008373ffffffffffffffffffffffffffffffffffffffff163b111561110a578273ffffffffffffffffffffffffffffffffffffffff1663150b7a02610f9d610a0d565b8685856040518563ffffffff1660e01b8152600401610fbf949392919061255a565b6020604051808303816000875af1925050508015610ffb57506040513d601f19601f82011682018060405250810190610ff891906125bb565b60015b61107f573d806000811461102b576040519150601f19603f3d011682016040523d82523d6000602084013e611030565b606091505b50600081510361107757836040517f64a0ae9200000000000000000000000000000000000000000000000000000000815260040161106e9190611cef565b60405180910390fd5b805181602001fd5b63150b7a0260e01b7bffffffffffffffffffffffffffffffffffffffffffffffffffffffff1916817bffffffffffffffffffffffffffffffffffffffffffffffffffffffff19161461110857836040517f64a0ae920000000000000000000000000000000000000000000000000000000081526004016110ff9190611cef565b60405180910390fd5b505b50505050565b606061111b82610948565b50600060066000848152602001908152602001600020805461113c9061221f565b80601f01602080910402602001604051908101604052809291908181526020018280546111689061221f565b80156111b55780601f1061118a576101008083540402835291602001916111b5565b820191906000526020600020905b81548152906001019060200180831161119857829003601f168201915b5050505050905060006111c66115e9565b905060008151036111db57819250505061121e565b6000825111156112105780826040516020016111f8929190612624565b6040516020818303038152906040529250505061121e565b61121984611600565b925050505b919050565b61123d828260405180602001604052806000815250611669565b5050565b60007f80ac58cd000000000000000000000000000000000000000000000000000000007bffffffffffffffffffffffffffffffffffffffffffffffffffffffff1916827bffffffffffffffffffffffffffffffffffffffffffffffffffffffff1916148061130c57507f5b5e139f000000000000000000000000000000000000000000000000000000007bffffffffffffffffffffffffffffffffffffffffffffffffffffffff1916827bffffffffffffffffffffffffffffffffffffffffffffffffffffffff1916145b8061131c575061131b82611685565b5b9050919050565b60006002600083815260200190815260200160002060009054906101000a900473ffffffffffffffffffffffffffffffffffffffff169050919050565b80806113995750600073ffffffffffffffffffffffffffffffffffffffff168273ffffffffffffffffffffffffffffffffffffffff1614155b156114cd5760006113a984610948565b9050600073ffffffffffffffffffffffffffffffffffffffff168373ffffffffffffffffffffffffffffffffffffffff161415801561141457508273ffffffffffffffffffffffffffffffffffffffff168173ffffffffffffffffffffffffffffffffffffffff1614155b8015611427575061142581846107cd565b155b1561146957826040517fa9fbf51f0000000000000000000000000000000000000000000000000000000081526004016114609190611cef565b60405180910390fd5b81156114cb57838573ffffffffffffffffffffffffffffffffffffffff168273ffffffffffffffffffffffffffffffffffffffff167f8c5be1e5ebec7d5bd14f71427d1e84f3dd0314c0f7b2291e5b200ac8c7c3b92560405160405180910390a45b505b836004600085815260200190815260200160002060006101000a81548173ffffffffffffffffffffffffffffffffffffffff021916908373ffffffffffffffffffffffffffffffffffffffff16021790555050505050565b6115308383836116ef565b6115e457600073ffffffffffffffffffffffffffffffffffffffff168373ffffffffffffffffffffffffffffffffffffffff16036115a557806040517f7e27328900000000000000000000000000000000000000000000000000000000815260040161159c9190611f96565b60405180910390fd5b81816040517f177e802f0000000000000000000000000000000000000000000000000000000081526004016115db929190612648565b60405180910390fd5b505050565b606060405180602001604052806000815250905090565b606061160b82610948565b5060006116166115e9565b905060008151116116365760405180602001604052806000815250611661565b80611640846117b0565b604051602001611651929190612624565b6040516020818303038152906040525b915050919050565b611673838361187e565b6116806000848484610f59565b505050565b60007f01ffc9a7000000000000000000000000000000000000000000000000000000007bffffffffffffffffffffffffffffffffffffffffffffffffffffffff1916827bffffffffffffffffffffffffffffffffffffffffffffffffffffffff1916149050919050565b60008073ffffffffffffffffffffffffffffffffffffffff168373ffffffffffffffffffffffffffffffffffffffff16141580156117a757508273ffffffffffffffffffffffffffffffffffffffff168473ffffffffffffffffffffffffffffffffffffffff161480611768575061176784846107cd565b5b806117a657508273ffffffffffffffffffffffffffffffffffffffff1661178e836109d0565b73ffffffffffffffffffffffffffffffffffffffff16145b5b90509392505050565b6060600060016117bf84611977565b01905060008167ffffffffffffffff8111156117de576117dd611d80565b5b6040519080825280601f01601f1916602001820160405280156118105781602001600182028036833780820191505090505b509050600082602001820190505b600115611873578080600190039150507f3031323334353637383961626364656600000000000000000000000000000000600a86061a8153600a858161186757611866612671565b5b0494506000850361181e575b819350505050919050565b600073ffffffffffffffffffffffffffffffffffffffff168273ffffffffffffffffffffffffffffffffffffffff16036118f05760006040517f64a0ae920000000000000000000000000000000000000000000000000000000081526004016118e79190611cef565b60405180910390fd5b60006118fe83836000610b0a565b9050600073ffffffffffffffffffffffffffffffffffffffff168173ffffffffffffffffffffffffffffffffffffffff16146119725760006040517f73c6ac6e0000000000000000000000000000000000000000000000000000000081526004016119699190611cef565b60405180910390fd5b505050565b600080600090507a184f03e93ff9f4daa797ed6e38ed64bf6a1f01000000000000000083106119d5577a184f03e93ff9f4daa797ed6e38ed64bf6a1f01000000000000000083816119cb576119ca612671565b5b0492506040810190505b6d04ee2d6d415b85acef81000000008310611a12576d04ee2d6d415b85acef81000000008381611a0857611a07612671565b5b0492506020810190505b662386f26fc100008310611a4157662386f26fc100008381611a3757611a36612671565b5b0492506010810190505b6305f5e1008310611a6a576305f5e1008381611a6057611a5f612671565b5b0492506008810190505b6127108310611a8f576127108381611a8557611a84612671565b5b0492506004810190505b60648310611ab25760648381611aa857611aa7612671565b5b0492506002810190505b600a8310611ac1576001810190505b80915050919050565b6000604051905090565b600080fd5b600080fd5b60007fffffffff0000000000000000000000000000000000000000000000000000000082169050919050565b611b1381611ade565b8114611b1e57600080fd5b50565b600081359050611b3081611b0a565b92915050565b600060208284031215611b4c57611b4b611ad4565b5b6000611b5a84828501611b21565b91505092915050565b60008115159050919050565b611b7881611b63565b82525050565b6000602082019050611b936000830184611b6f565b92915050565b600081519050919050565b600082825260208201905092915050565b60005b83811015611bd3578082015181840152602081019050611bb8565b60008484015250505050565b6000601f19601f8301169050919050565b6000611bfb82611b99565b611c058185611ba4565b9350611c15818560208601611bb5565b611c1e81611bdf565b840191505092915050565b60006020820190508181036000830152611c438184611bf0565b905092915050565b6000819050919050565b611c5e81611c4b565b8114611c6957600080fd5b50565b600081359050611c7b81611c55565b92915050565b600060208284031215611c9757611c96611ad4565b5b6000611ca584828501611c6c565b91505092915050565b600073ffffffffffffffffffffffffffffffffffffffff82169050919050565b6000611cd982611cae565b9050919050565b611ce981611cce565b82525050565b6000602082019050611d046000830184611ce0565b92915050565b611d1381611cce565b8114611d1e57600080fd5b50565b600081359050611d3081611d0a565b92915050565b60008060408385031215611d4d57611d4c611ad4565b5b6000611d5b85828601611d21565b9250506020611d6c85828601611c6c565b9150509250929050565b600080fd5b600080fd5b7f4e487b7100000000000000000000000000000000000000000000000000000000600052604160045260246000fd5b611db882611bdf565b810181811067ffffffffffffffff82111715611dd757611dd6611d80565b5b80604052505050565b6000611dea611aca565b9050611df68282611daf565b919050565b600067ffffffffffffffff821115611e1657611e15611d80565b5b611e1f82611bdf565b9050602081019050919050565b82818337600083830152505050565b6000611e4e611e4984611dfb565b611de0565b905082815260208101848484011115611e6a57611e69611d7b565b5b611e75848285611e2c565b509392505050565b600082601f830112611e9257611e91611d76565b5b8135611ea2848260208601611e3b565b91505092915050565b60008060408385031215611ec257611ec1611ad4565b5b6000611ed085828601611c6c565b925050602083013567ffffffffffffffff811115611ef157611ef0611ad9565b5b611efd85828601611e7d565b9150509250929050565b600080600060608486031215611f2057611f1f611ad4565b5b6000611f2e86828701611d21565b9350506020611f3f86828701611d21565b9250506040611f5086828701611c6c565b9150509250925092565b600060208284031215611f7057611f6f611ad4565b5b6000611f7e84828501611d21565b91505092915050565b611f9081611c4b565b82525050565b6000602082019050611fab6000830184611f87565b92915050565b611fba81611b63565b8114611fc557600080fd5b50565b600081359050611fd781611fb1565b92915050565b60008060408385031215611ff457611ff3611ad4565b5b600061200285828601611d21565b925050602061201385828601611fc8565b9150509250929050565b600067ffffffffffffffff82111561203857612037611d80565b5b61204182611bdf565b9050602081019050919050565b600061206161205c8461201d565b611de0565b90508281526020810184848401111561207d5761207c611d7b565b5b612088848285611e2c565b509392505050565b600082601f8301126120a5576120a4611d76565b5b81356120b584826020860161204e565b91505092915050565b600080600080608085870312156120d8576120d7611ad4565b5b60006120e687828801611d21565b94505060206120f787828801611d21565b935050604061210887828801611c6c565b925050606085013567ffffffffffffffff81111561212957612128611ad9565b5b61213587828801612090565b91505092959194509250565b60008060006060848603121561215a57612159611ad4565b5b600061216886828701611d21565b935050602061217986828701611c6c565b925050604084013567ffffffffffffffff81111561219a57612199611ad9565b5b6121a686828701611e7d565b9150509250925092565b600080604083850312156121c7576121c6611ad4565b5b60006121d585828601611d21565b92505060206121e685828601611d21565b9150509250929050565b7f4e487b7100000000000000000000000000000000000000000000000000000000600052602260045260246000fd5b6000600282049050600182168061223757607f821691505b60208210810361224a576122496121f0565b5b50919050565b60006060820190506122656000830186611ce0565b6122726020830185611f87565b61227f6040830184611ce0565b949350505050565b60008190508160005260206000209050919050565b60006020601f8301049050919050565b600082821b905092915050565b6000600883026122e97fffffffffffffffffffffffffffffffffffffffffffffffffffffffffffffffff826122ac565b6122f386836122ac565b95508019841693508086168417925050509392505050565b6000819050919050565b600061233061232b61232684611c4b565b61230b565b611c4b565b9050919050565b6000819050919050565b61234a83612315565b61235e61235682612337565b8484546122b9565b825550505050565b600090565b612373612366565b61237e818484612341565b505050565b5b818110156123a25761239760008261236b565b600181019050612384565b5050565b601f8211156123e7576123b881612287565b6123c18461229c565b810160208510156123d0578190505b6123e46123dc8561229c565b830182612383565b50505b505050565b600082821c905092915050565b600061240a600019846008026123ec565b1980831691505092915050565b600061242383836123f9565b9150826002028217905092915050565b61243c82611b99565b67ffffffffffffffff81111561245557612454611d80565b5b61245f825461221f565b61246a8282856123a6565b600060209050601f83116001811461249d576000841561248b578287015190505b6124958582612417565b8655506124fd565b601f1984166124ab86612287565b60005b828110156124d3578489015182556001820191506020850194506020810190506124ae565b868310156124f057848901516124ec601f8916826123f9565b8355505b6001600288020188555050505b505050505050565b600081519050919050565b600082825260208201905092915050565b600061252c82612505565b6125368185612510565b9350612546818560208601611bb5565b61254f81611bdf565b840191505092915050565b600060808201905061256f6000830187611ce0565b61257c6020830186611ce0565b6125896040830185611f87565b818103606083015261259b8184612521565b905095945050505050565b6000815190506125b581611b0a565b92915050565b6000602082840312156125d1576125d0611ad4565b5b60006125df848285016125a6565b91505092915050565b600081905092915050565b60006125fe82611b99565b61260881856125e8565b9350612618818560208601611bb5565b80840191505092915050565b600061263082856125f3565b915061263c82846125f3565b91508190509392505050565b600060408201905061265d6000830185611ce0565b61266a6020830184611f87565b9392505050565b7f4e487b7100000000000000000000000000000000000000000000000000000000600052601260045260246000fdfea26469706673582212208db0e20157a4c38934503359f886f14fcffd51d99e9a5e377b6a6917a19c11de64736f6c63430008180033",
    "linkReferences": {},
    "deployedLinkReferences": {}
}