{
  "_format": "hh-sol-artifact-1",
  "contractName": "ItemNFT",
  "sourceName": "contracts/nfts/ItemNFT.sol",
  "abi": [
    {
      "inputs": [
        {
          "internalType": "address",
          "name": "initialOwner",
          "type": "address"
        }
      ],
      "stateMutability": "nonpayable",
      "type": "constructor"
    },
    {
      "inputs": [
        {
          "internalType": "address",
          "name": "sender",
          "type": "address"
        },
        {
          "internalType": "uint256",
          "name": "tokenId",
          "type": "uint256"
        },
        {
          "internalType": "address",
          "name": "owner",
          "type": "address"
        }
      ],
      "name": "ERC721IncorrectOwner",
      "type": "error"
    },
    {
      "inputs": [
        {
          "internalType": "address",
          "name": "operator",
          "type": "address"
        },
        {
          "internalType": "uint256",
          "name": "tokenId",
          "type": "uint256"
        }
      ],
      "name": "ERC721InsufficientApproval",
      "type": "error"
    },
    {
      "inputs": [
        {
          "internalType": "address",
          "name": "approver",
          "type": "address"
        }
      ],
      "name": "ERC721InvalidApprover",
      "type": "error"
    },
    {
      "inputs": [
        {
          "internalType": "address",
          "name": "operator",
          "type": "address"
        }
      ],
      "name": "ERC721InvalidOperator",
      "type": "error"
    },
    {
      "inputs": [
        {
          "internalType": "address",
          "name": "owner",
          "type": "address"
        }
      ],
      "name": "ERC721InvalidOwner",
      "type": "error"
    },
    {
      "inputs": [
        {
          "internalType": "address",
          "name": "receiver",
          "type": "address"
        }
      ],
      "name": "ERC721InvalidReceiver",
      "type": "error"
    },
    {
      "inputs": [
        {
          "internalType": "address",
          "name": "sender",
          "type": "address"
        }
      ],
      "name": "ERC721InvalidSender",
      "type": "error"
    },
    {
      "inputs": [
        {
          "internalType": "uint256",
          "name": "tokenId",
          "type": "uint256"
        }
      ],
      "name": "ERC721NonexistentToken",
      "type": "error"
    },
    {
      "inputs": [
        {
          "internalType": "address",
          "name": "owner",
          "type": "address"
        }
      ],
      "name": "OwnableInvalidOwner",
      "type": "error"
    },
    {
      "inputs": [
        {
          "internalType": "address",
          "name": "account",
          "type": "address"
        }
      ],
      "name": "OwnableUnauthorizedAccount",
      "type": "error"
    },
    {
      "anonymous": false,
      "inputs": [
        {
          "indexed": true,
          "internalType": "address",
          "name": "owner",
          "type": "address"
        },
        {
          "indexed": true,
          "internalType": "address",
          "name": "approved",
          "type": "address"
        },
        {
          "indexed": true,
          "internalType": "uint256",
          "name": "tokenId",
          "type": "uint256"
        }
      ],
      "name": "Approval",
      "type": "event"
    },
    {
      "anonymous": false,
      "inputs": [
        {
          "indexed": true,
          "internalType": "address",
          "name": "owner",
          "type": "address"
        },
        {
          "indexed": true,
          "internalType": "address",
          "name": "operator",
          "type": "address"
        },
        {
          "indexed": false,
          "internalType": "bool",
          "name": "approved",
          "type": "bool"
        }
      ],
      "name": "ApprovalForAll",
      "type": "event"
    },
    {
      "anonymous": false,
      "inputs": [
        {
          "indexed": false,
          "internalType": "uint256",
          "name": "_fromTokenId",
          "type": "uint256"
        },
        {
          "indexed": false,
          "internalType": "uint256",
          "name": "_toTokenId",
          "type": "uint256"
        }
      ],
      "name": "BatchMetadataUpdate",
      "type": "event"
    },
    {
      "anonymous": false,
      "inputs": [
        {
          "indexed": false,
          "internalType": "uint256",
          "name": "_tokenId",
          "type": "uint256"
        }
      ],
      "name": "MetadataUpdate",
      "type": "event"
    },
    {
      "anonymous": false,
      "inputs": [
        {
          "indexed": true,
          "internalType": "address",
          "name": "previousOwner",
          "type": "address"
        },
        {
          "indexed": true,
          "internalType": "address",
          "name": "newOwner",
          "type": "address"
        }
      ],
      "name": "OwnershipTransferred",
      "type": "event"
    },
    {
      "anonymous": false,
      "inputs": [
        {
          "indexed": true,
          "internalType": "address",
          "name": "from",
          "type": "address"
        },
        {
          "indexed": true,
          "internalType": "address",
          "name": "to",
          "type": "address"
        },
        {
          "indexed": true,
          "internalType": "uint256",
          "name": "tokenId",
          "type": "uint256"
        }
      ],
      "name": "Transfer",
      "type": "event"
    },
    {
      "inputs": [
        {
          "internalType": "address",
          "name": "to",
          "type": "address"
        },
        {
          "internalType": "uint256",
          "name": "tokenId",
          "type": "uint256"
        }
      ],
      "name": "approve",
      "outputs": [],
      "stateMutability": "nonpayable",
      "type": "function"
    },
    {
      "inputs": [
        {
          "internalType": "address",
          "name": "owner",
          "type": "address"
        }
      ],
      "name": "balanceOf",
      "outputs": [
        {
          "internalType": "uint256",
          "name": "",
          "type": "uint256"
        }
      ],
      "stateMutability": "view",
      "type": "function"
    },
    {
      "inputs": [
        {
          "internalType": "uint256",
          "name": "tokenId",
          "type": "uint256"
        }
      ],
      "name": "burn",
      "outputs": [],
      "stateMutability": "nonpayable",
      "type": "function"
    },
    {
      "inputs": [
        {
          "internalType": "uint256",
          "name": "tokenId",
          "type": "uint256"
        }
      ],
      "name": "getApproved",
      "outputs": [
        {
          "internalType": "address",
          "name": "",
          "type": "address"
        }
      ],
      "stateMutability": "view",
      "type": "function"
    },
    {
      "inputs": [
        {
          "internalType": "address",
          "name": "owner",
          "type": "address"
        },
        {
          "internalType": "address",
          "name": "operator",
          "type": "address"
        }
      ],
      "name": "isApprovedForAll",
      "outputs": [
        {
          "internalType": "bool",
          "name": "",
          "type": "bool"
        }
      ],
      "stateMutability": "view",
      "type": "function"
    },
    {
      "inputs": [],
      "name": "name",
      "outputs": [
        {
          "internalType": "string",
          "name": "",
          "type": "string"
        }
      ],
      "stateMutability": "view",
      "type": "function"
    },
    {
      "inputs": [],
      "name": "owner",
      "outputs": [
        {
          "internalType": "address",
          "name": "",
          "type": "address"
        }
      ],
      "stateMutability": "view",
      "type": "function"
    },
    {
      "inputs": [
        {
          "internalType": "uint256",
          "name": "tokenId",
          "type": "uint256"
        }
      ],
      "name": "ownerOf",
      "outputs": [
        {
          "internalType": "address",
          "name": "",
          "type": "address"
        }
      ],
      "stateMutability": "view",
      "type": "function"
    },
    {
      "inputs": [],
      "name": "renounceOwnership",
      "outputs": [],
      "stateMutability": "nonpayable",
      "type": "function"
    },
    {
      "inputs": [
        {
          "internalType": "address",
          "name": "to",
          "type": "address"
        },
        {
          "internalType": "uint256",
          "name": "tokenId",
          "type": "uint256"
        },
        {
          "internalType": "string",
          "name": "uri",
          "type": "string"
        }
      ],
      "name": "safeMint",
      "outputs": [],
      "stateMutability": "nonpayable",
      "type": "function"
    },
    {
      "inputs": [
        {
          "internalType": "address",
          "name": "from",
          "type": "address"
        },
        {
          "internalType": "address",
          "name": "to",
          "type": "address"
        },
        {
          "internalType": "uint256",
          "name": "tokenId",
          "type": "uint256"
        }
      ],
      "name": "safeTransferFrom",
      "outputs": [],
      "stateMutability": "nonpayable",
      "type": "function"
    },
    {
      "inputs": [
        {
          "internalType": "address",
          "name": "from",
          "type": "address"
        },
        {
          "internalType": "address",
          "name": "to",
          "type": "address"
        },
        {
          "internalType": "uint256",
          "name": "tokenId",
          "type": "uint256"
        },
        {
          "internalType": "bytes",
          "name": "data",
          "type": "bytes"
        }
      ],
      "name": "safeTransferFrom",
      "outputs": [],
      "stateMutability": "nonpayable",
      "type": "function"
    },
    {
      "inputs": [
        {
          "internalType": "address",
          "name": "operator",
          "type": "address"
        },
        {
          "internalType": "bool",
          "name": "approved",
          "type": "bool"
        }
      ],
      "name": "setApprovalForAll",
      "outputs": [],
      "stateMutability": "nonpayable",
      "type": "function"
    },
    {
      "inputs": [
        {
          "internalType": "uint256",
          "name": "tokenId",
          "type": "uint256"
        },
        {
          "internalType": "string",
          "name": "uri",
          "type": "string"
        }
      ],
      "name": "setTokenURI",
      "outputs": [],
      "stateMutability": "nonpayable",
      "type": "function"
    },
    {
      "inputs": [
        {
          "internalType": "bytes4",
          "name": "interfaceId",
          "type": "bytes4"
        }
      ],
      "name": "supportsInterface",
      "outputs": [
        {
          "internalType": "bool",
          "name": "",
          "type": "bool"
        }
      ],
      "stateMutability": "view",
      "type": "function"
    },
    {
      "inputs": [],
      "name": "symbol",
      "outputs": [
        {
          "internalType": "string",
          "name": "",
          "type": "string"
        }
      ],
      "stateMutability": "view",
      "type": "function"
    },
    {
      "inputs": [
        {
          "internalType": "uint256",
          "name": "tokenId",
          "type": "uint256"
        }
      ],
      "name": "tokenURI",
      "outputs": [
        {
          "internalType": "string",
          "name": "",
          "type": "string"
        }
      ],
      "stateMutability": "view",
      "type": "function"
    },
    {
      "inputs": [
        {
          "internalType": "address",
          "name": "from",
          "type": "address"
        },
        {
          "internalType": "address",
          "name": "to",
          "type": "address"
        },
        {
          "internalType": "uint256",
          "name": "tokenId",
          "type": "uint256"
        }
      ],
      "name": "transferFrom",
      "outputs": [],
      "stateMutability": "nonpayable",
      "type": "function"
    },
    {
      "inputs": [
        {
          "internalType": "address",
          "name": "newOwner",
          "type": "address"
        }
      ],
      "name": "transferOwnership",
      "outputs": [],
      "stateMutability": "nonpayable",
      "type": "function"
    }
  ],
  "bytecode": "0x60806040523480156200001157600080fd5b5060405162002d2738038062002d27833981810160405281019062000037919062000288565b806040518060400160405280600781526020017f4974656d4e4654000000000000000000000000000000000000000000000000008152506040518060400160405280600381526020017f494e5400000000000000000000000000000000000000000000000000000000008152508160009081620000b5919062000534565b508060019081620000c7919062000534565b505050600073ffffffffffffffffffffffffffffffffffffffff168173ffffffffffffffffffffffffffffffffffffffff16036200013f5760006040517f1e4fbdf70000000000000000000000000000000000000000000000000000000081526004016200013691906200062c565b60405180910390fd5b62000150816200015860201b60201c565b505062000649565b6000600760009054906101000a900473ffffffffffffffffffffffffffffffffffffffff16905081600760006101000a81548173ffffffffffffffffffffffffffffffffffffffff021916908373ffffffffffffffffffffffffffffffffffffffff1602179055508173ffffffffffffffffffffffffffffffffffffffff168173ffffffffffffffffffffffffffffffffffffffff167f8be0079c531659141344cd1fd0a4f28419497f9722a3daafe3b4186f6b6457e060405160405180910390a35050565b600080fd5b600073ffffffffffffffffffffffffffffffffffffffff82169050919050565b6000620002508262000223565b9050919050565b620002628162000243565b81146200026e57600080fd5b50565b600081519050620002828162000257565b92915050565b600060208284031215620002a157620002a06200021e565b5b6000620002b18482850162000271565b91505092915050565b600081519050919050565b7f4e487b7100000000000000000000000000000000000000000000000000000000600052604160045260246000fd5b7f4e487b7100000000000000000000000000000000000000000000000000000000600052602260045260246000fd5b600060028204905060018216806200033c57607f821691505b602082108103620003525762000351620002f4565b5b50919050565b60008190508160005260206000209050919050565b60006020601f8301049050919050565b600082821b905092915050565b600060088302620003bc7fffffffffffffffffffffffffffffffffffffffffffffffffffffffffffffffff826200037d565b620003c886836200037d565b95508019841693508086168417925050509392505050565b6000819050919050565b6000819050919050565b6000620004156200040f6200040984620003e0565b620003ea565b620003e0565b9050919050565b6000819050919050565b6200043183620003f4565b6200044962000440826200041c565b8484546200038a565b825550505050565b600090565b6200046062000451565b6200046d81848462000426565b505050565b5b8181101562000495576200048960008262000456565b60018101905062000473565b5050565b601f821115620004e457620004ae8162000358565b620004b9846200036d565b81016020851015620004c9578190505b620004e1620004d8856200036d565b83018262000472565b50505b505050565b600082821c905092915050565b60006200050960001984600802620004e9565b1980831691505092915050565b6000620005248383620004f6565b9150826002028217905092915050565b6200053f82620002ba565b67ffffffffffffffff8111156200055b576200055a620002c5565b5b62000567825462000323565b6200057482828562000499565b600060209050601f831160018114620005ac576000841562000597578287015190505b620005a3858262000516565b86555062000613565b601f198416620005bc8662000358565b60005b82811015620005e657848901518255600182019150602085019450602081019050620005bf565b8683101562000606578489015162000602601f891682620004f6565b8355505b6001600288020188555050505b505050505050565b620006268162000243565b82525050565b60006020820190506200064360008301846200061b565b92915050565b6126ce80620006596000396000f3fe608060405234801561001057600080fd5b50600436106101215760003560e01c806370a08231116100ad578063b88d4fde11610071578063b88d4fde146102f2578063c87b56dd1461030e578063cd279c7c1461033e578063e985e9c51461035a578063f2fde38b1461038a57610121565b806370a0823114610260578063715018a6146102905780638da5cb5b1461029a57806395d89b41146102b8578063a22cb465146102d657610121565b8063162094c4116100f4578063162094c4146101c057806323b872dd146101dc57806342842e0e146101f857806342966c68146102145780636352211e1461023057610121565b806301ffc9a71461012657806306fdde0314610156578063081812fc14610174578063095ea7b3146101a4575b600080fd5b610140600480360381019061013b9190611b2e565b6103a6565b60405161014d9190611b76565b60405180910390f35b61015e6103b8565b60405161016b9190611c21565b60405180910390f35b61018e60048036038101906101899190611c79565b61044a565b60405161019b9190611ce7565b60405180910390f35b6101be60048036038101906101b99190611d2e565b610466565b005b6101da60048036038101906101d59190611ea3565b61047c565b005b6101f660048036038101906101f19190611eff565b610492565b005b610212600480360381019061020d9190611eff565b610594565b005b61022e60048036038101906102299190611c79565b6105b4565b005b61024a60048036038101906102459190611c79565b6105cb565b6040516102579190611ce7565b60405180910390f35b61027a60048036038101906102759190611f52565b6105dd565b6040516102879190611f8e565b60405180910390f35b610298610697565b005b6102a26106ab565b6040516102af9190611ce7565b60405180910390f35b6102c06106d5565b6040516102cd9190611c21565b60405180910390f35b6102f060048036038101906102eb9190611fd5565b610767565b005b61030c600480360381019061030791906120b6565b61077d565b005b61032860048036038101906103239190611c79565b61079a565b6040516103359190611c21565b60405180910390f35b61035860048036038101906103539190612139565b6107ac565b005b610374600480360381019061036f91906121a8565b6107c5565b6040516103819190611b76565b60405180910390f35b6103a4600480360381019061039f9190611f52565b610859565b005b60006103b1826108df565b9050919050565b6060600080546103c790612217565b80601f01602080910402602001604051908101604052809291908181526020018280546103f390612217565b80156104405780601f1061041557610100808354040283529160200191610440565b820191906000526020600020905b81548152906001019060200180831161042357829003601f168201915b5050505050905090565b600061045582610940565b5061045f826109c8565b9050919050565b6104788282610473610a05565b610a0d565b5050565b610484610a1f565b61048e8282610aa6565b5050565b600073ffffffffffffffffffffffffffffffffffffffff168273ffffffffffffffffffffffffffffffffffffffff16036105045760006040517f64a0ae920000000000000000000000000000000000000000000000000000000081526004016104fb9190611ce7565b60405180910390fd5b60006105188383610513610a05565b610b02565b90508373ffffffffffffffffffffffffffffffffffffffff168173ffffffffffffffffffffffffffffffffffffffff161461058e578382826040517f64283d7b00000000000000000000000000000000000000000000000000000000815260040161058593929190612248565b60405180910390fd5b50505050565b6105af8383836040518060200160405280600081525061077d565b505050565b6105c76000826105c2610a05565b610b02565b5050565b60006105d682610940565b9050919050565b60008073ffffffffffffffffffffffffffffffffffffffff168273ffffffffffffffffffffffffffffffffffffffff16036106505760006040517f89c62b640000000000000000000000000000000000000000000000000000000081526004016106479190611ce7565b60405180910390fd5b600360008373ffffffffffffffffffffffffffffffffffffffff1673ffffffffffffffffffffffffffffffffffffffff168152602001908152602001600020549050919050565b61069f610a1f565b6106a96000610d1c565b565b6000600760009054906101000a900473ffffffffffffffffffffffffffffffffffffffff16905090565b6060600180546106e490612217565b80601f016020809104026020016040519081016040528092919081815260200182805461071090612217565b801561075d5780601f106107325761010080835404028352916020019161075d565b820191906000526020600020905b81548152906001019060200180831161074057829003601f168201915b5050505050905090565b610779610772610a05565b8383610de2565b5050565b610788848484610492565b61079484848484610f51565b50505050565b60606107a582611108565b9050919050565b6107b6838361121b565b6107c08282610aa6565b505050565b6000600560008473ffffffffffffffffffffffffffffffffffffffff1673ffffffffffffffffffffffffffffffffffffffff16815260200190815260200160002060008373ffffffffffffffffffffffffffffffffffffffff1673ffffffffffffffffffffffffffffffffffffffff16815260200190815260200160002060009054906101000a900460ff16905092915050565b610861610a1f565b600073ffffffffffffffffffffffffffffffffffffffff168173ffffffffffffffffffffffffffffffffffffffff16036108d35760006040517f1e4fbdf70000000000000000000000000000000000000000000000000000000081526004016108ca9190611ce7565b60405180910390fd5b6108dc81610d1c565b50565b6000634906490660e01b7bffffffffffffffffffffffffffffffffffffffffffffffffffffffff1916827bffffffffffffffffffffffffffffffffffffffffffffffffffffffff19161480610939575061093882611239565b5b9050919050565b60008061094c8361131b565b9050600073ffffffffffffffffffffffffffffffffffffffff168173ffffffffffffffffffffffffffffffffffffffff16036109bf57826040517f7e2732890000000000000000000000000000000000000000000000000000000081526004016109b69190611f8e565b60405180910390fd5b80915050919050565b60006004600083815260200190815260200160002060009054906101000a900473ffffffffffffffffffffffffffffffffffffffff169050919050565b600033905090565b610a1a8383836001611358565b505050565b610a27610a05565b73ffffffffffffffffffffffffffffffffffffffff16610a456106ab565b73ffffffffffffffffffffffffffffffffffffffff1614610aa457610a68610a05565b6040517f118cdaa7000000000000000000000000000000000000000000000000000000008152600401610a9b9190611ce7565b60405180910390fd5b565b80600660008481526020019081526020016000209081610ac6919061242b565b507ff8e1a15aba9398e019f0b49df1a4fde98ee17ae345cb5f6b5e2c27f5033e8ce782604051610af69190611f8e565b60405180910390a15050565b600080610b0e8461131b565b9050600073ffffffffffffffffffffffffffffffffffffffff168373ffffffffffffffffffffffffffffffffffffffff1614610b5057610b4f81848661151d565b5b600073ffffffffffffffffffffffffffffffffffffffff168173ffffffffffffffffffffffffffffffffffffffff1614610be157610b92600085600080611358565b6001600360008373ffffffffffffffffffffffffffffffffffffffff1673ffffffffffffffffffffffffffffffffffffffff168152602001908152602001600020600082825403925050819055505b600073ffffffffffffffffffffffffffffffffffffffff168573ffffffffffffffffffffffffffffffffffffffff1614610c64576001600360008773ffffffffffffffffffffffffffffffffffffffff1673ffffffffffffffffffffffffffffffffffffffff168152602001908152602001600020600082825401925050819055505b846002600086815260200190815260200160002060006101000a81548173ffffffffffffffffffffffffffffffffffffffff021916908373ffffffffffffffffffffffffffffffffffffffff160217905550838573ffffffffffffffffffffffffffffffffffffffff168273ffffffffffffffffffffffffffffffffffffffff167fddf252ad1be2c89b69c2b068fc378daa952ba7f163c4a11628f55a4df523b3ef60405160405180910390a4809150509392505050565b6000600760009054906101000a900473ffffffffffffffffffffffffffffffffffffffff16905081600760006101000a81548173ffffffffffffffffffffffffffffffffffffffff021916908373ffffffffffffffffffffffffffffffffffffffff1602179055508173ffffffffffffffffffffffffffffffffffffffff168173ffffffffffffffffffffffffffffffffffffffff167f8be0079c531659141344cd1fd0a4f28419497f9722a3daafe3b4186f6b6457e060405160405180910390a35050565b600073ffffffffffffffffffffffffffffffffffffffff168273ffffffffffffffffffffffffffffffffffffffff1603610e5357816040517f5b08ba18000000000000000000000000000000000000000000000000000000008152600401610e4a9190611ce7565b60405180910390fd5b80600560008573ffffffffffffffffffffffffffffffffffffffff1673ffffffffffffffffffffffffffffffffffffffff16815260200190815260200160002060008473ffffffffffffffffffffffffffffffffffffffff1673ffffffffffffffffffffffffffffffffffffffff16815260200190815260200160002060006101000a81548160ff0219169083151502179055508173ffffffffffffffffffffffffffffffffffffffff168373ffffffffffffffffffffffffffffffffffffffff167f17307eab39ab6107e8899845ad3d59bd9653f200f220920489ca2b5937696c3183604051610f449190611b76565b60405180910390a3505050565b60008373ffffffffffffffffffffffffffffffffffffffff163b1115611102578273ffffffffffffffffffffffffffffffffffffffff1663150b7a02610f95610a05565b8685856040518563ffffffff1660e01b8152600401610fb79493929190612552565b6020604051808303816000875af1925050508015610ff357506040513d601f19601f82011682018060405250810190610ff091906125b3565b60015b611077573d8060008114611023576040519150601f19603f3d011682016040523d82523d6000602084013e611028565b606091505b50600081510361106f57836040517f64a0ae920000000000000000000000000000000000000000000000000000000081526004016110669190611ce7565b60405180910390fd5b805181602001fd5b63150b7a0260e01b7bffffffffffffffffffffffffffffffffffffffffffffffffffffffff1916817bffffffffffffffffffffffffffffffffffffffffffffffffffffffff19161461110057836040517f64a0ae920000000000000000000000000000000000000000000000000000000081526004016110f79190611ce7565b60405180910390fd5b505b50505050565b606061111382610940565b50600060066000848152602001908152602001600020805461113490612217565b80601f016020809104026020016040519081016040528092919081815260200182805461116090612217565b80156111ad5780601f10611182576101008083540402835291602001916111ad565b820191906000526020600020905b81548152906001019060200180831161119057829003601f168201915b5050505050905060006111be6115e1565b905060008151036111d3578192505050611216565b6000825111156112085780826040516020016111f092919061261c565b60405160208183030381529060405292505050611216565b611211846115f8565b925050505b919050565b611235828260405180602001604052806000815250611661565b5050565b60007f80ac58cd000000000000000000000000000000000000000000000000000000007bffffffffffffffffffffffffffffffffffffffffffffffffffffffff1916827bffffffffffffffffffffffffffffffffffffffffffffffffffffffff1916148061130457507f5b5e139f000000000000000000000000000000000000000000000000000000007bffffffffffffffffffffffffffffffffffffffffffffffffffffffff1916827bffffffffffffffffffffffffffffffffffffffffffffffffffffffff1916145b8061131457506113138261167d565b5b9050919050565b60006002600083815260200190815260200160002060009054906101000a900473ffffffffffffffffffffffffffffffffffffffff169050919050565b80806113915750600073ffffffffffffffffffffffffffffffffffffffff168273ffffffffffffffffffffffffffffffffffffffff1614155b156114c55760006113a184610940565b9050600073ffffffffffffffffffffffffffffffffffffffff168373ffffffffffffffffffffffffffffffffffffffff161415801561140c57508273ffffffffffffffffffffffffffffffffffffffff168173ffffffffffffffffffffffffffffffffffffffff1614155b801561141f575061141d81846107c5565b155b1561146157826040517fa9fbf51f0000000000000000000000000000000000000000000000000000000081526004016114589190611ce7565b60405180910390fd5b81156114c357838573ffffffffffffffffffffffffffffffffffffffff168273ffffffffffffffffffffffffffffffffffffffff167f8c5be1e5ebec7d5bd14f71427d1e84f3dd0314c0f7b2291e5b200ac8c7c3b92560405160405180910390a45b505b836004600085815260200190815260200160002060006101000a81548173ffffffffffffffffffffffffffffffffffffffff021916908373ffffffffffffffffffffffffffffffffffffffff16021790555050505050565b6115288383836116e7565b6115dc57600073ffffffffffffffffffffffffffffffffffffffff168373ffffffffffffffffffffffffffffffffffffffff160361159d57806040517f7e2732890000000000000000000000000000000000000000000000000000000081526004016115949190611f8e565b60405180910390fd5b81816040517f177e802f0000000000000000000000000000000000000000000000000000000081526004016115d3929190612640565b60405180910390fd5b505050565b606060405180602001604052806000815250905090565b606061160382610940565b50600061160e6115e1565b9050600081511161162e5760405180602001604052806000815250611659565b80611638846117a8565b60405160200161164992919061261c565b6040516020818303038152906040525b915050919050565b61166b8383611876565b6116786000848484610f51565b505050565b60007f01ffc9a7000000000000000000000000000000000000000000000000000000007bffffffffffffffffffffffffffffffffffffffffffffffffffffffff1916827bffffffffffffffffffffffffffffffffffffffffffffffffffffffff1916149050919050565b60008073ffffffffffffffffffffffffffffffffffffffff168373ffffffffffffffffffffffffffffffffffffffff161415801561179f57508273ffffffffffffffffffffffffffffffffffffffff168473ffffffffffffffffffffffffffffffffffffffff161480611760575061175f84846107c5565b5b8061179e57508273ffffffffffffffffffffffffffffffffffffffff16611786836109c8565b73ffffffffffffffffffffffffffffffffffffffff16145b5b90509392505050565b6060600060016117b78461196f565b01905060008167ffffffffffffffff8111156117d6576117d5611d78565b5b6040519080825280601f01601f1916602001820160405280156118085781602001600182028036833780820191505090505b509050600082602001820190505b60011561186b578080600190039150507f3031323334353637383961626364656600000000000000000000000000000000600a86061a8153600a858161185f5761185e612669565b5b04945060008503611816575b819350505050919050565b600073ffffffffffffffffffffffffffffffffffffffff168273ffffffffffffffffffffffffffffffffffffffff16036118e85760006040517f64a0ae920000000000000000000000000000000000000000000000000000000081526004016118df9190611ce7565b60405180910390fd5b60006118f683836000610b02565b9050600073ffffffffffffffffffffffffffffffffffffffff168173ffffffffffffffffffffffffffffffffffffffff161461196a5760006040517f73c6ac6e0000000000000000000000000000000000000000000000000000000081526004016119619190611ce7565b60405180910390fd5b505050565b600080600090507a184f03e93ff9f4daa797ed6e38ed64bf6a1f01000000000000000083106119cd577a184f03e93ff9f4daa797ed6e38ed64bf6a1f01000000000000000083816119c3576119c2612669565b5b0492506040810190505b6d04ee2d6d415b85acef81000000008310611a0a576d04ee2d6d415b85acef81000000008381611a00576119ff612669565b5b0492506020810190505b662386f26fc100008310611a3957662386f26fc100008381611a2f57611a2e612669565b5b0492506010810190505b6305f5e1008310611a62576305f5e1008381611a5857611a57612669565b5b0492506008810190505b6127108310611a87576127108381611a7d57611a7c612669565b5b0492506004810190505b60648310611aaa5760648381611aa057611a9f612669565b5b0492506002810190505b600a8310611ab9576001810190505b80915050919050565b6000604051905090565b600080fd5b600080fd5b60007fffffffff0000000000000000000000000000000000000000000000000000000082169050919050565b611b0b81611ad6565b8114611b1657600080fd5b50565b600081359050611b2881611b02565b92915050565b600060208284031215611b4457611b43611acc565b5b6000611b5284828501611b19565b91505092915050565b60008115159050919050565b611b7081611b5b565b82525050565b6000602082019050611b8b6000830184611b67565b92915050565b600081519050919050565b600082825260208201905092915050565b60005b83811015611bcb578082015181840152602081019050611bb0565b60008484015250505050565b6000601f19601f8301169050919050565b6000611bf382611b91565b611bfd8185611b9c565b9350611c0d818560208601611bad565b611c1681611bd7565b840191505092915050565b60006020820190508181036000830152611c3b8184611be8565b905092915050565b6000819050919050565b611c5681611c43565b8114611c6157600080fd5b50565b600081359050611c7381611c4d565b92915050565b600060208284031215611c8f57611c8e611acc565b5b6000611c9d84828501611c64565b91505092915050565b600073ffffffffffffffffffffffffffffffffffffffff82169050919050565b6000611cd182611ca6565b9050919050565b611ce181611cc6565b82525050565b6000602082019050611cfc6000830184611cd8565b92915050565b611d0b81611cc6565b8114611d1657600080fd5b50565b600081359050611d2881611d02565b92915050565b60008060408385031215611d4557611d44611acc565b5b6000611d5385828601611d19565b9250506020611d6485828601611c64565b9150509250929050565b600080fd5b600080fd5b7f4e487b7100000000000000000000000000000000000000000000000000000000600052604160045260246000fd5b611db082611bd7565b810181811067ffffffffffffffff82111715611dcf57611dce611d78565b5b80604052505050565b6000611de2611ac2565b9050611dee8282611da7565b919050565b600067ffffffffffffffff821115611e0e57611e0d611d78565b5b611e1782611bd7565b9050602081019050919050565b82818337600083830152505050565b6000611e46611e4184611df3565b611dd8565b905082815260208101848484011115611e6257611e61611d73565b5b611e6d848285611e24565b509392505050565b600082601f830112611e8a57611e89611d6e565b5b8135611e9a848260208601611e33565b91505092915050565b60008060408385031215611eba57611eb9611acc565b5b6000611ec885828601611c64565b925050602083013567ffffffffffffffff811115611ee957611ee8611ad1565b5b611ef585828601611e75565b9150509250929050565b600080600060608486031215611f1857611f17611acc565b5b6000611f2686828701611d19565b9350506020611f3786828701611d19565b9250506040611f4886828701611c64565b9150509250925092565b600060208284031215611f6857611f67611acc565b5b6000611f7684828501611d19565b91505092915050565b611f8881611c43565b82525050565b6000602082019050611fa36000830184611f7f565b92915050565b611fb281611b5b565b8114611fbd57600080fd5b50565b600081359050611fcf81611fa9565b92915050565b60008060408385031215611fec57611feb611acc565b5b6000611ffa85828601611d19565b925050602061200b85828601611fc0565b9150509250929050565b600067ffffffffffffffff8211156120305761202f611d78565b5b61203982611bd7565b9050602081019050919050565b600061205961205484612015565b611dd8565b90508281526020810184848401111561207557612074611d73565b5b612080848285611e24565b509392505050565b600082601f83011261209d5761209c611d6e565b5b81356120ad848260208601612046565b91505092915050565b600080600080608085870312156120d0576120cf611acc565b5b60006120de87828801611d19565b94505060206120ef87828801611d19565b935050604061210087828801611c64565b925050606085013567ffffffffffffffff81111561212157612120611ad1565b5b61212d87828801612088565b91505092959194509250565b60008060006060848603121561215257612151611acc565b5b600061216086828701611d19565b935050602061217186828701611c64565b925050604084013567ffffffffffffffff81111561219257612191611ad1565b5b61219e86828701611e75565b9150509250925092565b600080604083850312156121bf576121be611acc565b5b60006121cd85828601611d19565b92505060206121de85828601611d19565b9150509250929050565b7f4e487b7100000000000000000000000000000000000000000000000000000000600052602260045260246000fd5b6000600282049050600182168061222f57607f821691505b602082108103612242576122416121e8565b5b50919050565b600060608201905061225d6000830186611cd8565b61226a6020830185611f7f565b6122776040830184611cd8565b949350505050565b60008190508160005260206000209050919050565b60006020601f8301049050919050565b600082821b905092915050565b6000600883026122e17fffffffffffffffffffffffffffffffffffffffffffffffffffffffffffffffff826122a4565b6122eb86836122a4565b95508019841693508086168417925050509392505050565b6000819050919050565b600061232861232361231e84611c43565b612303565b611c43565b9050919050565b6000819050919050565b6123428361230d565b61235661234e8261232f565b8484546122b1565b825550505050565b600090565b61236b61235e565b612376818484612339565b505050565b5b8181101561239a5761238f600082612363565b60018101905061237c565b5050565b601f8211156123df576123b08161227f565b6123b984612294565b810160208510156123c8578190505b6123dc6123d485612294565b83018261237b565b50505b505050565b600082821c905092915050565b6000612402600019846008026123e4565b1980831691505092915050565b600061241b83836123f1565b9150826002028217905092915050565b61243482611b91565b67ffffffffffffffff81111561244d5761244c611d78565b5b6124578254612217565b61246282828561239e565b600060209050601f8311600181146124955760008415612483578287015190505b61248d858261240f565b8655506124f5565b601f1984166124a38661227f565b60005b828110156124cb578489015182556001820191506020850194506020810190506124a6565b868310156124e857848901516124e4601f8916826123f1565b8355505b6001600288020188555050505b505050505050565b600081519050919050565b600082825260208201905092915050565b6000612524826124fd565b61252e8185612508565b935061253e818560208601611bad565b61254781611bd7565b840191505092915050565b60006080820190506125676000830187611cd8565b6125746020830186611cd8565b6125816040830185611f7f565b81810360608301526125938184612519565b905095945050505050565b6000815190506125ad81611b02565b92915050565b6000602082840312156125c9576125c8611acc565b5b60006125d78482850161259e565b91505092915050565b600081905092915050565b60006125f682611b91565b61260081856125e0565b9350612610818560208601611bad565b80840191505092915050565b600061262882856125eb565b915061263482846125eb565b91508190509392505050565b60006040820190506126556000830185611cd8565b6126626020830184611f7f565b9392505050565b7f4e487b7100000000000000000000000000000000000000000000000000000000600052601260045260246000fdfea26469706673582212204f70dee7004180bb1b1d69a5119a6d0c4551499e80db71f6a1d89c8c6f0a696a64736f6c63430008180033",
  "linkReferences": {},
  "deployedLinkReferences": {}
}