{
  "_format": "hh-sol-artifact-1",
  "contractName": "ItemNFT",
  "sourceName": "contracts/nfts/ItemNFT.sol",
  "abi": [
    {
      "inputs": [
        {
          "internalType": "address",
          "name": "initialOwner",
          "type": "address"
        }
      ],
      "stateMutability": "nonpayable",
      "type": "constructor"
    },
    {
      "inputs": [
        {
          "internalType": "address",
          "name": "sender",
          "type": "address"
        },
        {
          "internalType": "uint256",
          "name": "tokenId",
          "type": "uint256"
        },
        {
          "internalType": "address",
          "name": "owner",
          "type": "address"
        }
      ],
      "name": "ERC721IncorrectOwner",
      "type": "error"
    },
    {
      "inputs": [
        {
          "internalType": "address",
          "name": "operator",
          "type": "address"
        },
        {
          "internalType": "uint256",
          "name": "tokenId",
          "type": "uint256"
        }
      ],
      "name": "ERC721InsufficientApproval",
      "type": "error"
    },
    {
      "inputs": [
        {
          "internalType": "address",
          "name": "approver",
          "type": "address"
        }
      ],
      "name": "ERC721InvalidApprover",
      "type": "error"
    },
    {
      "inputs": [
        {
          "internalType": "address",
          "name": "operator",
          "type": "address"
        }
      ],
      "name": "ERC721InvalidOperator",
      "type": "error"
    },
    {
      "inputs": [
        {
          "internalType": "address",
          "name": "owner",
          "type": "address"
        }
      ],
      "name": "ERC721InvalidOwner",
      "type": "error"
    },
    {
      "inputs": [
        {
          "internalType": "address",
          "name": "receiver",
          "type": "address"
        }
      ],
      "name": "ERC721InvalidReceiver",
      "type": "error"
    },
    {
      "inputs": [
        {
          "internalType": "address",
          "name": "sender",
          "type": "address"
        }
      ],
      "name": "ERC721InvalidSender",
      "type": "error"
    },
    {
      "inputs": [
        {
          "internalType": "uint256",
          "name": "tokenId",
          "type": "uint256"
        }
      ],
      "name": "ERC721NonexistentToken",
      "type": "error"
    },
    {
      "inputs": [
        {
          "internalType": "address",
          "name": "owner",
          "type": "address"
        }
      ],
      "name": "OwnableInvalidOwner",
      "type": "error"
    },
    {
      "inputs": [
        {
          "internalType": "address",
          "name": "account",
          "type": "address"
        }
      ],
      "name": "OwnableUnauthorizedAccount",
      "type": "error"
    },
    {
      "anonymous": false,
      "inputs": [
        {
          "indexed": true,
          "internalType": "address",
          "name": "owner",
          "type": "address"
        },
        {
          "indexed": true,
          "internalType": "address",
          "name": "approved",
          "type": "address"
        },
        {
          "indexed": true,
          "internalType": "uint256",
          "name": "tokenId",
          "type": "uint256"
        }
      ],
      "name": "Approval",
      "type": "event"
    },
    {
      "anonymous": false,
      "inputs": [
        {
          "indexed": true,
          "internalType": "address",
          "name": "owner",
          "type": "address"
        },
        {
          "indexed": true,
          "internalType": "address",
          "name": "operator",
          "type": "address"
        },
        {
          "indexed": false,
          "internalType": "bool",
          "name": "approved",
          "type": "bool"
        }
      ],
      "name": "ApprovalForAll",
      "type": "event"
    },
    {
      "anonymous": false,
      "inputs": [
        {
          "indexed": false,
          "internalType": "uint256",
          "name": "_fromTokenId",
          "type": "uint256"
        },
        {
          "indexed": false,
          "internalType": "uint256",
          "name": "_toTokenId",
          "type": "uint256"
        }
      ],
      "name": "BatchMetadataUpdate",
      "type": "event"
    },
    {
      "anonymous": false,
      "inputs": [
        {
          "indexed": false,
          "internalType": "uint256",
          "name": "_tokenId",
          "type": "uint256"
        }
      ],
      "name": "MetadataUpdate",
      "type": "event"
    },
    {
      "anonymous": false,
      "inputs": [
        {
          "indexed": false,
          "internalType": "address",
          "name": "to",
          "type": "address"
        },
        {
          "indexed": false,
          "internalType": "uint256",
          "name": "tokenId",
          "type": "uint256"
        },
        {
          "indexed": false,
          "internalType": "string",
          "name": "url",
          "type": "string"
        }
      ],
      "name": "Mint",
      "type": "event"
    },
    {
      "anonymous": false,
      "inputs": [
        {
          "indexed": true,
          "internalType": "address",
          "name": "previousOwner",
          "type": "address"
        },
        {
          "indexed": true,
          "internalType": "address",
          "name": "newOwner",
          "type": "address"
        }
      ],
      "name": "OwnershipTransferred",
      "type": "event"
    },
    {
      "anonymous": false,
      "inputs": [
        {
          "indexed": false,
          "internalType": "uint256",
          "name": "tokenId",
          "type": "uint256"
        },
        {
          "indexed": false,
          "internalType": "string",
          "name": "uri",
          "type": "string"
        }
      ],
      "name": "TokenURISet",
      "type": "event"
    },
    {
      "anonymous": false,
      "inputs": [
        {
          "indexed": true,
          "internalType": "address",
          "name": "from",
          "type": "address"
        },
        {
          "indexed": true,
          "internalType": "address",
          "name": "to",
          "type": "address"
        },
        {
          "indexed": true,
          "internalType": "uint256",
          "name": "tokenId",
          "type": "uint256"
        }
      ],
      "name": "Transfer",
      "type": "event"
    },
    {
      "inputs": [
        {
          "internalType": "address",
          "name": "to",
          "type": "address"
        },
        {
          "internalType": "uint256",
          "name": "tokenId",
          "type": "uint256"
        }
      ],
      "name": "approve",
      "outputs": [],
      "stateMutability": "nonpayable",
      "type": "function"
    },
    {
      "inputs": [
        {
          "internalType": "address",
          "name": "owner",
          "type": "address"
        }
      ],
      "name": "balanceOf",
      "outputs": [
        {
          "internalType": "uint256",
          "name": "",
          "type": "uint256"
        }
      ],
      "stateMutability": "view",
      "type": "function"
    },
    {
      "inputs": [
        {
          "internalType": "uint256",
          "name": "tokenId",
          "type": "uint256"
        }
      ],
      "name": "burn",
      "outputs": [],
      "stateMutability": "nonpayable",
      "type": "function"
    },
    {
      "inputs": [
        {
          "internalType": "uint256",
          "name": "tokenId",
          "type": "uint256"
        }
      ],
      "name": "getApproved",
      "outputs": [
        {
          "internalType": "address",
          "name": "",
          "type": "address"
        }
      ],
      "stateMutability": "view",
      "type": "function"
    },
    {
      "inputs": [],
      "name": "getTotalTokens",
      "outputs": [
        {
          "internalType": "uint256",
          "name": "",
          "type": "uint256"
        }
      ],
      "stateMutability": "view",
      "type": "function"
    },
    {
      "inputs": [
        {
          "internalType": "address",
          "name": "owner",
          "type": "address"
        },
        {
          "internalType": "address",
          "name": "operator",
          "type": "address"
        }
      ],
      "name": "isApprovedForAll",
      "outputs": [
        {
          "internalType": "bool",
          "name": "",
          "type": "bool"
        }
      ],
      "stateMutability": "view",
      "type": "function"
    },
    {
      "inputs": [],
      "name": "name",
      "outputs": [
        {
          "internalType": "string",
          "name": "",
          "type": "string"
        }
      ],
      "stateMutability": "view",
      "type": "function"
    },
    {
      "inputs": [],
      "name": "owner",
      "outputs": [
        {
          "internalType": "address",
          "name": "",
          "type": "address"
        }
      ],
      "stateMutability": "view",
      "type": "function"
    },
    {
      "inputs": [
        {
          "internalType": "uint256",
          "name": "tokenId",
          "type": "uint256"
        }
      ],
      "name": "ownerOf",
      "outputs": [
        {
          "internalType": "address",
          "name": "",
          "type": "address"
        }
      ],
      "stateMutability": "view",
      "type": "function"
    },
    {
      "inputs": [],
      "name": "renounceOwnership",
      "outputs": [],
      "stateMutability": "nonpayable",
      "type": "function"
    },
    {
      "inputs": [
        {
          "internalType": "address",
          "name": "to",
          "type": "address"
        },
        {
          "internalType": "string",
          "name": "uri",
          "type": "string"
        }
      ],
      "name": "safeMint",
      "outputs": [
        {
          "internalType": "address",
          "name": "",
          "type": "address"
        }
      ],
      "stateMutability": "nonpayable",
      "type": "function"
    },
    {
      "inputs": [
        {
          "internalType": "address",
          "name": "from",
          "type": "address"
        },
        {
          "internalType": "address",
          "name": "to",
          "type": "address"
        },
        {
          "internalType": "uint256",
          "name": "tokenId",
          "type": "uint256"
        }
      ],
      "name": "safeTransferFrom",
      "outputs": [],
      "stateMutability": "nonpayable",
      "type": "function"
    },
    {
      "inputs": [
        {
          "internalType": "address",
          "name": "from",
          "type": "address"
        },
        {
          "internalType": "address",
          "name": "to",
          "type": "address"
        },
        {
          "internalType": "uint256",
          "name": "tokenId",
          "type": "uint256"
        },
        {
          "internalType": "bytes",
          "name": "data",
          "type": "bytes"
        }
      ],
      "name": "safeTransferFrom",
      "outputs": [],
      "stateMutability": "nonpayable",
      "type": "function"
    },
    {
      "inputs": [
        {
          "internalType": "address",
          "name": "operator",
          "type": "address"
        },
        {
          "internalType": "bool",
          "name": "approved",
          "type": "bool"
        }
      ],
      "name": "setApprovalForAll",
      "outputs": [],
      "stateMutability": "nonpayable",
      "type": "function"
    },
    {
      "inputs": [
        {
          "internalType": "uint256",
          "name": "tokenId",
          "type": "uint256"
        },
        {
          "internalType": "string",
          "name": "uri",
          "type": "string"
        }
      ],
      "name": "setTokenURI",
      "outputs": [],
      "stateMutability": "nonpayable",
      "type": "function"
    },
    {
      "inputs": [
        {
          "internalType": "bytes4",
          "name": "interfaceId",
          "type": "bytes4"
        }
      ],
      "name": "supportsInterface",
      "outputs": [
        {
          "internalType": "bool",
          "name": "",
          "type": "bool"
        }
      ],
      "stateMutability": "view",
      "type": "function"
    },
    {
      "inputs": [],
      "name": "symbol",
      "outputs": [
        {
          "internalType": "string",
          "name": "",
          "type": "string"
        }
      ],
      "stateMutability": "view",
      "type": "function"
    },
    {
      "inputs": [
        {
          "internalType": "uint256",
          "name": "tokenId",
          "type": "uint256"
        }
      ],
      "name": "tokenURI",
      "outputs": [
        {
          "internalType": "string",
          "name": "",
          "type": "string"
        }
      ],
      "stateMutability": "view",
      "type": "function"
    },
    {
      "inputs": [
        {
          "internalType": "address",
          "name": "from",
          "type": "address"
        },
        {
          "internalType": "address",
          "name": "to",
          "type": "address"
        },
        {
          "internalType": "uint256",
          "name": "tokenId",
          "type": "uint256"
        }
      ],
      "name": "transferFrom",
      "outputs": [],
      "stateMutability": "nonpayable",
      "type": "function"
    },
    {
      "inputs": [
        {
          "internalType": "address",
          "name": "newOwner",
          "type": "address"
        }
      ],
      "name": "transferOwnership",
      "outputs": [],
      "stateMutability": "nonpayable",
      "type": "function"
    }
  ],
  "bytecode": "0x60806040523480156200001157600080fd5b50604051620030683803806200306883398181016040528101906200003791906200040e565b806040518060400160405280600781526020017f4974656d4e4654000000000000000000000000000000000000000000000000008152506040518060400160405280600381526020017f494e5400000000000000000000000000000000000000000000000000000000008152508160009081620000b59190620006ba565b508060019081620000c79190620006ba565b505050600073ffffffffffffffffffffffffffffffffffffffff168173ffffffffffffffffffffffffffffffffffffffff16036200013f5760006040517f1e4fbdf7000000000000000000000000000000000000000000000000000000008152600401620001369190620007b2565b60405180910390fd5b62000150816200017160201b60201c565b5062000162816200023760201b60201c565b600160088190555050620007cf565b6000600760009054906101000a900473ffffffffffffffffffffffffffffffffffffffff16905081600760006101000a81548173ffffffffffffffffffffffffffffffffffffffff021916908373ffffffffffffffffffffffffffffffffffffffff1602179055508173ffffffffffffffffffffffffffffffffffffffff168173ffffffffffffffffffffffffffffffffffffffff167f8be0079c531659141344cd1fd0a4f28419497f9722a3daafe3b4186f6b6457e060405160405180910390a35050565b62000247620002d060201b60201c565b600073ffffffffffffffffffffffffffffffffffffffff168173ffffffffffffffffffffffffffffffffffffffff1603620002bc5760006040517f1e4fbdf7000000000000000000000000000000000000000000000000000000008152600401620002b39190620007b2565b60405180910390fd5b620002cd816200017160201b60201c565b50565b620002e06200037260201b60201c565b73ffffffffffffffffffffffffffffffffffffffff16620003066200037a60201b60201c565b73ffffffffffffffffffffffffffffffffffffffff16146200037057620003326200037260201b60201c565b6040517f118cdaa7000000000000000000000000000000000000000000000000000000008152600401620003679190620007b2565b60405180910390fd5b565b600033905090565b6000600760009054906101000a900473ffffffffffffffffffffffffffffffffffffffff16905090565b600080fd5b600073ffffffffffffffffffffffffffffffffffffffff82169050919050565b6000620003d682620003a9565b9050919050565b620003e881620003c9565b8114620003f457600080fd5b50565b6000815190506200040881620003dd565b92915050565b600060208284031215620004275762000426620003a4565b5b60006200043784828501620003f7565b91505092915050565b600081519050919050565b7f4e487b7100000000000000000000000000000000000000000000000000000000600052604160045260246000fd5b7f4e487b7100000000000000000000000000000000000000000000000000000000600052602260045260246000fd5b60006002820490506001821680620004c257607f821691505b602082108103620004d857620004d76200047a565b5b50919050565b60008190508160005260206000209050919050565b60006020601f8301049050919050565b600082821b905092915050565b600060088302620005427fffffffffffffffffffffffffffffffffffffffffffffffffffffffffffffffff8262000503565b6200054e868362000503565b95508019841693508086168417925050509392505050565b6000819050919050565b6000819050919050565b60006200059b620005956200058f8462000566565b62000570565b62000566565b9050919050565b6000819050919050565b620005b7836200057a565b620005cf620005c682620005a2565b84845462000510565b825550505050565b600090565b620005e6620005d7565b620005f3818484620005ac565b505050565b5b818110156200061b576200060f600082620005dc565b600181019050620005f9565b5050565b601f8211156200066a576200063481620004de565b6200063f84620004f3565b810160208510156200064f578190505b620006676200065e85620004f3565b830182620005f8565b50505b505050565b600082821c905092915050565b60006200068f600019846008026200066f565b1980831691505092915050565b6000620006aa83836200067c565b9150826002028217905092915050565b620006c58262000440565b67ffffffffffffffff811115620006e157620006e06200044b565b5b620006ed8254620004a9565b620006fa8282856200061f565b600060209050601f8311600181146200073257600084156200071d578287015190505b6200072985826200069c565b86555062000799565b601f1984166200074286620004de565b60005b828110156200076c5784890151825560018201915060208501945060208101905062000745565b868310156200078c578489015162000788601f8916826200067c565b8355505b6001600288020188555050505b505050505050565b620007ac81620003c9565b82525050565b6000602082019050620007c96000830184620007a1565b92915050565b61288980620007df6000396000f3fe608060405234801561001057600080fd5b506004361061012c5760003560e01c8063715018a6116100ad578063c87b56dd11610071578063c87b56dd14610319578063d204c45e14610349578063e985e9c514610379578063f08b82e6146103a9578063f2fde38b146103c75761012c565b8063715018a61461029b5780638da5cb5b146102a557806395d89b41146102c3578063a22cb465146102e1578063b88d4fde146102fd5761012c565b806323b872dd116100f457806323b872dd146101e757806342842e0e1461020357806342966c681461021f5780636352211e1461023b57806370a082311461026b5761012c565b806301ffc9a71461013157806306fdde0314610161578063081812fc1461017f578063095ea7b3146101af578063162094c4146101cb575b600080fd5b61014b60048036038101906101469190611c17565b6103e3565b6040516101589190611c5f565b60405180910390f35b6101696103f5565b6040516101769190611d0a565b60405180910390f35b61019960048036038101906101949190611d62565b610487565b6040516101a69190611dd0565b60405180910390f35b6101c960048036038101906101c49190611e17565b6104a3565b005b6101e560048036038101906101e09190611f8c565b6104b9565b005b61020160048036038101906101fc9190611fe8565b610508565b005b61021d60048036038101906102189190611fe8565b61060a565b005b61023960048036038101906102349190611d62565b61062a565b005b61025560048036038101906102509190611d62565b610641565b6040516102629190611dd0565b60405180910390f35b6102856004803603810190610280919061203b565b610653565b6040516102929190612077565b60405180910390f35b6102a361070d565b005b6102ad610721565b6040516102ba9190611dd0565b60405180910390f35b6102cb61074b565b6040516102d89190611d0a565b60405180910390f35b6102fb60048036038101906102f691906120be565b6107dd565b005b6103176004803603810190610312919061219f565b6107f3565b005b610333600480360381019061032e9190611d62565b610810565b6040516103409190611d0a565b60405180910390f35b610363600480360381019061035e9190612222565b610822565b6040516103709190611dd0565b60405180910390f35b610393600480360381019061038e919061227e565b6108a4565b6040516103a09190611c5f565b60405180910390f35b6103b1610938565b6040516103be9190612077565b60405180910390f35b6103e160048036038101906103dc919061203b565b610942565b005b60006103ee826109c8565b9050919050565b606060008054610404906122ed565b80601f0160208091040260200160405190810160405280929190818152602001828054610430906122ed565b801561047d5780601f106104525761010080835404028352916020019161047d565b820191906000526020600020905b81548152906001019060200180831161046057829003601f168201915b5050505050905090565b600061049282610a29565b5061049c82610ab1565b9050919050565b6104b582826104b0610aee565b610af6565b5050565b6104c1610b08565b6104cb8282610b8f565b7fda84ca2183491f179a603e877b2cb058e42195041c2b9c53d746427e519a34df82826040516104fc92919061231e565b60405180910390a15050565b600073ffffffffffffffffffffffffffffffffffffffff168273ffffffffffffffffffffffffffffffffffffffff160361057a5760006040517f64a0ae920000000000000000000000000000000000000000000000000000000081526004016105719190611dd0565b60405180910390fd5b600061058e8383610589610aee565b610beb565b90508373ffffffffffffffffffffffffffffffffffffffff168173ffffffffffffffffffffffffffffffffffffffff1614610604578382826040517f64283d7b0000000000000000000000000000000000000000000000000000000081526004016105fb9392919061234e565b60405180910390fd5b50505050565b610625838383604051806020016040528060008152506107f3565b505050565b61063d600082610638610aee565b610beb565b5050565b600061064c82610a29565b9050919050565b60008073ffffffffffffffffffffffffffffffffffffffff168273ffffffffffffffffffffffffffffffffffffffff16036106c65760006040517f89c62b640000000000000000000000000000000000000000000000000000000081526004016106bd9190611dd0565b60405180910390fd5b600360008373ffffffffffffffffffffffffffffffffffffffff1673ffffffffffffffffffffffffffffffffffffffff168152602001908152602001600020549050919050565b610715610b08565b61071f6000610e05565b565b6000600760009054906101000a900473ffffffffffffffffffffffffffffffffffffffff16905090565b60606001805461075a906122ed565b80601f0160208091040260200160405190810160405280929190818152602001828054610786906122ed565b80156107d35780601f106107a8576101008083540402835291602001916107d3565b820191906000526020600020905b8154815290600101906020018083116107b657829003601f168201915b5050505050905090565b6107ef6107e8610aee565b8383610ecb565b5050565b6107fe848484610508565b61080a8484848461103a565b50505050565b606061081b826111f1565b9050919050565b600061082c610b08565b6000600854905061083d8482611304565b6108478184610b8f565b6008600081548092919061085a906123b4565b91905055507f85a66b9141978db9980f7e0ce3b468cebf4f7999f32b23091c5c03e798b1ba7a848285604051610892939291906123fc565b60405180910390a18391505092915050565b6000600560008473ffffffffffffffffffffffffffffffffffffffff1673ffffffffffffffffffffffffffffffffffffffff16815260200190815260200160002060008373ffffffffffffffffffffffffffffffffffffffff1673ffffffffffffffffffffffffffffffffffffffff16815260200190815260200160002060009054906101000a900460ff16905092915050565b6000600854905090565b61094a610b08565b600073ffffffffffffffffffffffffffffffffffffffff168173ffffffffffffffffffffffffffffffffffffffff16036109bc5760006040517f1e4fbdf70000000000000000000000000000000000000000000000000000000081526004016109b39190611dd0565b60405180910390fd5b6109c581610e05565b50565b6000634906490660e01b7bffffffffffffffffffffffffffffffffffffffffffffffffffffffff1916827bffffffffffffffffffffffffffffffffffffffffffffffffffffffff19161480610a225750610a2182611322565b5b9050919050565b600080610a3583611404565b9050600073ffffffffffffffffffffffffffffffffffffffff168173ffffffffffffffffffffffffffffffffffffffff1603610aa857826040517f7e273289000000000000000000000000000000000000000000000000000000008152600401610a9f9190612077565b60405180910390fd5b80915050919050565b60006004600083815260200190815260200160002060009054906101000a900473ffffffffffffffffffffffffffffffffffffffff169050919050565b600033905090565b610b038383836001611441565b505050565b610b10610aee565b73ffffffffffffffffffffffffffffffffffffffff16610b2e610721565b73ffffffffffffffffffffffffffffffffffffffff1614610b8d57610b51610aee565b6040517f118cdaa7000000000000000000000000000000000000000000000000000000008152600401610b849190611dd0565b60405180910390fd5b565b80600660008481526020019081526020016000209081610baf91906125e6565b507ff8e1a15aba9398e019f0b49df1a4fde98ee17ae345cb5f6b5e2c27f5033e8ce782604051610bdf9190612077565b60405180910390a15050565b600080610bf784611404565b9050600073ffffffffffffffffffffffffffffffffffffffff168373ffffffffffffffffffffffffffffffffffffffff1614610c3957610c38818486611606565b5b600073ffffffffffffffffffffffffffffffffffffffff168173ffffffffffffffffffffffffffffffffffffffff1614610cca57610c7b600085600080611441565b6001600360008373ffffffffffffffffffffffffffffffffffffffff1673ffffffffffffffffffffffffffffffffffffffff168152602001908152602001600020600082825403925050819055505b600073ffffffffffffffffffffffffffffffffffffffff168573ffffffffffffffffffffffffffffffffffffffff1614610d4d576001600360008773ffffffffffffffffffffffffffffffffffffffff1673ffffffffffffffffffffffffffffffffffffffff168152602001908152602001600020600082825401925050819055505b846002600086815260200190815260200160002060006101000a81548173ffffffffffffffffffffffffffffffffffffffff021916908373ffffffffffffffffffffffffffffffffffffffff160217905550838573ffffffffffffffffffffffffffffffffffffffff168273ffffffffffffffffffffffffffffffffffffffff167fddf252ad1be2c89b69c2b068fc378daa952ba7f163c4a11628f55a4df523b3ef60405160405180910390a4809150509392505050565b6000600760009054906101000a900473ffffffffffffffffffffffffffffffffffffffff16905081600760006101000a81548173ffffffffffffffffffffffffffffffffffffffff021916908373ffffffffffffffffffffffffffffffffffffffff1602179055508173ffffffffffffffffffffffffffffffffffffffff168173ffffffffffffffffffffffffffffffffffffffff167f8be0079c531659141344cd1fd0a4f28419497f9722a3daafe3b4186f6b6457e060405160405180910390a35050565b600073ffffffffffffffffffffffffffffffffffffffff168273ffffffffffffffffffffffffffffffffffffffff1603610f3c57816040517f5b08ba18000000000000000000000000000000000000000000000000000000008152600401610f339190611dd0565b60405180910390fd5b80600560008573ffffffffffffffffffffffffffffffffffffffff1673ffffffffffffffffffffffffffffffffffffffff16815260200190815260200160002060008473ffffffffffffffffffffffffffffffffffffffff1673ffffffffffffffffffffffffffffffffffffffff16815260200190815260200160002060006101000a81548160ff0219169083151502179055508173ffffffffffffffffffffffffffffffffffffffff168373ffffffffffffffffffffffffffffffffffffffff167f17307eab39ab6107e8899845ad3d59bd9653f200f220920489ca2b5937696c318360405161102d9190611c5f565b60405180910390a3505050565b60008373ffffffffffffffffffffffffffffffffffffffff163b11156111eb578273ffffffffffffffffffffffffffffffffffffffff1663150b7a0261107e610aee565b8685856040518563ffffffff1660e01b81526004016110a0949392919061270d565b6020604051808303816000875af19250505080156110dc57506040513d601f19601f820116820180604052508101906110d9919061276e565b60015b611160573d806000811461110c576040519150601f19603f3d011682016040523d82523d6000602084013e611111565b606091505b50600081510361115857836040517f64a0ae9200000000000000000000000000000000000000000000000000000000815260040161114f9190611dd0565b60405180910390fd5b805181602001fd5b63150b7a0260e01b7bffffffffffffffffffffffffffffffffffffffffffffffffffffffff1916817bffffffffffffffffffffffffffffffffffffffffffffffffffffffff1916146111e957836040517f64a0ae920000000000000000000000000000000000000000000000000000000081526004016111e09190611dd0565b60405180910390fd5b505b50505050565b60606111fc82610a29565b50600060066000848152602001908152602001600020805461121d906122ed565b80601f0160208091040260200160405190810160405280929190818152602001828054611249906122ed565b80156112965780601f1061126b57610100808354040283529160200191611296565b820191906000526020600020905b81548152906001019060200180831161127957829003601f168201915b5050505050905060006112a76116ca565b905060008151036112bc5781925050506112ff565b6000825111156112f15780826040516020016112d99291906127d7565b604051602081830303815290604052925050506112ff565b6112fa846116e1565b925050505b919050565b61131e82826040518060200160405280600081525061174a565b5050565b60007f80ac58cd000000000000000000000000000000000000000000000000000000007bffffffffffffffffffffffffffffffffffffffffffffffffffffffff1916827bffffffffffffffffffffffffffffffffffffffffffffffffffffffff191614806113ed57507f5b5e139f000000000000000000000000000000000000000000000000000000007bffffffffffffffffffffffffffffffffffffffffffffffffffffffff1916827bffffffffffffffffffffffffffffffffffffffffffffffffffffffff1916145b806113fd57506113fc82611766565b5b9050919050565b60006002600083815260200190815260200160002060009054906101000a900473ffffffffffffffffffffffffffffffffffffffff169050919050565b808061147a5750600073ffffffffffffffffffffffffffffffffffffffff168273ffffffffffffffffffffffffffffffffffffffff1614155b156115ae57600061148a84610a29565b9050600073ffffffffffffffffffffffffffffffffffffffff168373ffffffffffffffffffffffffffffffffffffffff16141580156114f557508273ffffffffffffffffffffffffffffffffffffffff168173ffffffffffffffffffffffffffffffffffffffff1614155b8015611508575061150681846108a4565b155b1561154a57826040517fa9fbf51f0000000000000000000000000000000000000000000000000000000081526004016115419190611dd0565b60405180910390fd5b81156115ac57838573ffffffffffffffffffffffffffffffffffffffff168273ffffffffffffffffffffffffffffffffffffffff167f8c5be1e5ebec7d5bd14f71427d1e84f3dd0314c0f7b2291e5b200ac8c7c3b92560405160405180910390a45b505b836004600085815260200190815260200160002060006101000a81548173ffffffffffffffffffffffffffffffffffffffff021916908373ffffffffffffffffffffffffffffffffffffffff16021790555050505050565b6116118383836117d0565b6116c557600073ffffffffffffffffffffffffffffffffffffffff168373ffffffffffffffffffffffffffffffffffffffff160361168657806040517f7e27328900000000000000000000000000000000000000000000000000000000815260040161167d9190612077565b60405180910390fd5b81816040517f177e802f0000000000000000000000000000000000000000000000000000000081526004016116bc9291906127fb565b60405180910390fd5b505050565b606060405180602001604052806000815250905090565b60606116ec82610a29565b5060006116f76116ca565b905060008151116117175760405180602001604052806000815250611742565b8061172184611891565b6040516020016117329291906127d7565b6040516020818303038152906040525b915050919050565b611754838361195f565b611761600084848461103a565b505050565b60007f01ffc9a7000000000000000000000000000000000000000000000000000000007bffffffffffffffffffffffffffffffffffffffffffffffffffffffff1916827bffffffffffffffffffffffffffffffffffffffffffffffffffffffff1916149050919050565b60008073ffffffffffffffffffffffffffffffffffffffff168373ffffffffffffffffffffffffffffffffffffffff161415801561188857508273ffffffffffffffffffffffffffffffffffffffff168473ffffffffffffffffffffffffffffffffffffffff161480611849575061184884846108a4565b5b8061188757508273ffffffffffffffffffffffffffffffffffffffff1661186f83610ab1565b73ffffffffffffffffffffffffffffffffffffffff16145b5b90509392505050565b6060600060016118a084611a58565b01905060008167ffffffffffffffff8111156118bf576118be611e61565b5b6040519080825280601f01601f1916602001820160405280156118f15781602001600182028036833780820191505090505b509050600082602001820190505b600115611954578080600190039150507f3031323334353637383961626364656600000000000000000000000000000000600a86061a8153600a858161194857611947612824565b5b049450600085036118ff575b819350505050919050565b600073ffffffffffffffffffffffffffffffffffffffff168273ffffffffffffffffffffffffffffffffffffffff16036119d15760006040517f64a0ae920000000000000000000000000000000000000000000000000000000081526004016119c89190611dd0565b60405180910390fd5b60006119df83836000610beb565b9050600073ffffffffffffffffffffffffffffffffffffffff168173ffffffffffffffffffffffffffffffffffffffff1614611a535760006040517f73c6ac6e000000000000000000000000000000000000000000000000000000008152600401611a4a9190611dd0565b60405180910390fd5b505050565b600080600090507a184f03e93ff9f4daa797ed6e38ed64bf6a1f0100000000000000008310611ab6577a184f03e93ff9f4daa797ed6e38ed64bf6a1f0100000000000000008381611aac57611aab612824565b5b0492506040810190505b6d04ee2d6d415b85acef81000000008310611af3576d04ee2d6d415b85acef81000000008381611ae957611ae8612824565b5b0492506020810190505b662386f26fc100008310611b2257662386f26fc100008381611b1857611b17612824565b5b0492506010810190505b6305f5e1008310611b4b576305f5e1008381611b4157611b40612824565b5b0492506008810190505b6127108310611b70576127108381611b6657611b65612824565b5b0492506004810190505b60648310611b935760648381611b8957611b88612824565b5b0492506002810190505b600a8310611ba2576001810190505b80915050919050565b6000604051905090565b600080fd5b600080fd5b60007fffffffff0000000000000000000000000000000000000000000000000000000082169050919050565b611bf481611bbf565b8114611bff57600080fd5b50565b600081359050611c1181611beb565b92915050565b600060208284031215611c2d57611c2c611bb5565b5b6000611c3b84828501611c02565b91505092915050565b60008115159050919050565b611c5981611c44565b82525050565b6000602082019050611c746000830184611c50565b92915050565b600081519050919050565b600082825260208201905092915050565b60005b83811015611cb4578082015181840152602081019050611c99565b60008484015250505050565b6000601f19601f8301169050919050565b6000611cdc82611c7a565b611ce68185611c85565b9350611cf6818560208601611c96565b611cff81611cc0565b840191505092915050565b60006020820190508181036000830152611d248184611cd1565b905092915050565b6000819050919050565b611d3f81611d2c565b8114611d4a57600080fd5b50565b600081359050611d5c81611d36565b92915050565b600060208284031215611d7857611d77611bb5565b5b6000611d8684828501611d4d565b91505092915050565b600073ffffffffffffffffffffffffffffffffffffffff82169050919050565b6000611dba82611d8f565b9050919050565b611dca81611daf565b82525050565b6000602082019050611de56000830184611dc1565b92915050565b611df481611daf565b8114611dff57600080fd5b50565b600081359050611e1181611deb565b92915050565b60008060408385031215611e2e57611e2d611bb5565b5b6000611e3c85828601611e02565b9250506020611e4d85828601611d4d565b9150509250929050565b600080fd5b600080fd5b7f4e487b7100000000000000000000000000000000000000000000000000000000600052604160045260246000fd5b611e9982611cc0565b810181811067ffffffffffffffff82111715611eb857611eb7611e61565b5b80604052505050565b6000611ecb611bab565b9050611ed78282611e90565b919050565b600067ffffffffffffffff821115611ef757611ef6611e61565b5b611f0082611cc0565b9050602081019050919050565b82818337600083830152505050565b6000611f2f611f2a84611edc565b611ec1565b905082815260208101848484011115611f4b57611f4a611e5c565b5b611f56848285611f0d565b509392505050565b600082601f830112611f7357611f72611e57565b5b8135611f83848260208601611f1c565b91505092915050565b60008060408385031215611fa357611fa2611bb5565b5b6000611fb185828601611d4d565b925050602083013567ffffffffffffffff811115611fd257611fd1611bba565b5b611fde85828601611f5e565b9150509250929050565b60008060006060848603121561200157612000611bb5565b5b600061200f86828701611e02565b935050602061202086828701611e02565b925050604061203186828701611d4d565b9150509250925092565b60006020828403121561205157612050611bb5565b5b600061205f84828501611e02565b91505092915050565b61207181611d2c565b82525050565b600060208201905061208c6000830184612068565b92915050565b61209b81611c44565b81146120a657600080fd5b50565b6000813590506120b881612092565b92915050565b600080604083850312156120d5576120d4611bb5565b5b60006120e385828601611e02565b92505060206120f4858286016120a9565b9150509250929050565b600067ffffffffffffffff82111561211957612118611e61565b5b61212282611cc0565b9050602081019050919050565b600061214261213d846120fe565b611ec1565b90508281526020810184848401111561215e5761215d611e5c565b5b612169848285611f0d565b509392505050565b600082601f83011261218657612185611e57565b5b813561219684826020860161212f565b91505092915050565b600080600080608085870312156121b9576121b8611bb5565b5b60006121c787828801611e02565b94505060206121d887828801611e02565b93505060406121e987828801611d4d565b925050606085013567ffffffffffffffff81111561220a57612209611bba565b5b61221687828801612171565b91505092959194509250565b6000806040838503121561223957612238611bb5565b5b600061224785828601611e02565b925050602083013567ffffffffffffffff81111561226857612267611bba565b5b61227485828601611f5e565b9150509250929050565b6000806040838503121561229557612294611bb5565b5b60006122a385828601611e02565b92505060206122b485828601611e02565b9150509250929050565b7f4e487b7100000000000000000000000000000000000000000000000000000000600052602260045260246000fd5b6000600282049050600182168061230557607f821691505b602082108103612318576123176122be565b5b50919050565b60006040820190506123336000830185612068565b81810360208301526123458184611cd1565b90509392505050565b60006060820190506123636000830186611dc1565b6123706020830185612068565b61237d6040830184611dc1565b949350505050565b7f4e487b7100000000000000000000000000000000000000000000000000000000600052601160045260246000fd5b60006123bf82611d2c565b91507fffffffffffffffffffffffffffffffffffffffffffffffffffffffffffffffff82036123f1576123f0612385565b5b600182019050919050565b60006060820190506124116000830186611dc1565b61241e6020830185612068565b81810360408301526124308184611cd1565b9050949350505050565b60008190508160005260206000209050919050565b60006020601f8301049050919050565b600082821b905092915050565b60006008830261249c7fffffffffffffffffffffffffffffffffffffffffffffffffffffffffffffffff8261245f565b6124a6868361245f565b95508019841693508086168417925050509392505050565b6000819050919050565b60006124e36124de6124d984611d2c565b6124be565b611d2c565b9050919050565b6000819050919050565b6124fd836124c8565b612511612509826124ea565b84845461246c565b825550505050565b600090565b612526612519565b6125318184846124f4565b505050565b5b818110156125555761254a60008261251e565b600181019050612537565b5050565b601f82111561259a5761256b8161243a565b6125748461244f565b81016020851015612583578190505b61259761258f8561244f565b830182612536565b50505b505050565b600082821c905092915050565b60006125bd6000198460080261259f565b1980831691505092915050565b60006125d683836125ac565b9150826002028217905092915050565b6125ef82611c7a565b67ffffffffffffffff81111561260857612607611e61565b5b61261282546122ed565b61261d828285612559565b600060209050601f831160018114612650576000841561263e578287015190505b61264885826125ca565b8655506126b0565b601f19841661265e8661243a565b60005b8281101561268657848901518255600182019150602085019450602081019050612661565b868310156126a3578489015161269f601f8916826125ac565b8355505b6001600288020188555050505b505050505050565b600081519050919050565b600082825260208201905092915050565b60006126df826126b8565b6126e981856126c3565b93506126f9818560208601611c96565b61270281611cc0565b840191505092915050565b60006080820190506127226000830187611dc1565b61272f6020830186611dc1565b61273c6040830185612068565b818103606083015261274e81846126d4565b905095945050505050565b60008151905061276881611beb565b92915050565b60006020828403121561278457612783611bb5565b5b600061279284828501612759565b91505092915050565b600081905092915050565b60006127b182611c7a565b6127bb818561279b565b93506127cb818560208601611c96565b80840191505092915050565b60006127e382856127a6565b91506127ef82846127a6565b91508190509392505050565b60006040820190506128106000830185611dc1565b61281d6020830184612068565b9392505050565b7f4e487b7100000000000000000000000000000000000000000000000000000000600052601260045260246000fdfea2646970667358221220c8604dc064fbb836f6cd06ea81a1e5c4aa4e3d5bd5a34478937715f746551d4e64736f6c63430008180033",
  "linkReferences": {},
  "deployedLinkReferences": {}
}