{
  "_format": "hh-sol-artifact-1",
  "contractName": "ItemNFT",
  "sourceName": "contracts/nfts/ItemNFT.sol",
  "abi": [
    {
      "inputs": [
        {
          "internalType": "address",
          "name": "initialOwner",
          "type": "address"
        }
      ],
      "stateMutability": "nonpayable",
      "type": "constructor"
    },
    {
      "inputs": [
        {
          "internalType": "address",
          "name": "sender",
          "type": "address"
        },
        {
          "internalType": "uint256",
          "name": "tokenId",
          "type": "uint256"
        },
        {
          "internalType": "address",
          "name": "owner",
          "type": "address"
        }
      ],
      "name": "ERC721IncorrectOwner",
      "type": "error"
    },
    {
      "inputs": [
        {
          "internalType": "address",
          "name": "operator",
          "type": "address"
        },
        {
          "internalType": "uint256",
          "name": "tokenId",
          "type": "uint256"
        }
      ],
      "name": "ERC721InsufficientApproval",
      "type": "error"
    },
    {
      "inputs": [
        {
          "internalType": "address",
          "name": "approver",
          "type": "address"
        }
      ],
      "name": "ERC721InvalidApprover",
      "type": "error"
    },
    {
      "inputs": [
        {
          "internalType": "address",
          "name": "operator",
          "type": "address"
        }
      ],
      "name": "ERC721InvalidOperator",
      "type": "error"
    },
    {
      "inputs": [
        {
          "internalType": "address",
          "name": "owner",
          "type": "address"
        }
      ],
      "name": "ERC721InvalidOwner",
      "type": "error"
    },
    {
      "inputs": [
        {
          "internalType": "address",
          "name": "receiver",
          "type": "address"
        }
      ],
      "name": "ERC721InvalidReceiver",
      "type": "error"
    },
    {
      "inputs": [
        {
          "internalType": "address",
          "name": "sender",
          "type": "address"
        }
      ],
      "name": "ERC721InvalidSender",
      "type": "error"
    },
    {
      "inputs": [
        {
          "internalType": "uint256",
          "name": "tokenId",
          "type": "uint256"
        }
      ],
      "name": "ERC721NonexistentToken",
      "type": "error"
    },
    {
      "inputs": [
        {
          "internalType": "address",
          "name": "owner",
          "type": "address"
        }
      ],
      "name": "OwnableInvalidOwner",
      "type": "error"
    },
    {
      "inputs": [
        {
          "internalType": "address",
          "name": "account",
          "type": "address"
        }
      ],
      "name": "OwnableUnauthorizedAccount",
      "type": "error"
    },
    {
      "anonymous": false,
      "inputs": [
        {
          "indexed": true,
          "internalType": "address",
          "name": "owner",
          "type": "address"
        },
        {
          "indexed": true,
          "internalType": "address",
          "name": "approved",
          "type": "address"
        },
        {
          "indexed": true,
          "internalType": "uint256",
          "name": "tokenId",
          "type": "uint256"
        }
      ],
      "name": "Approval",
      "type": "event"
    },
    {
      "anonymous": false,
      "inputs": [
        {
          "indexed": true,
          "internalType": "address",
          "name": "owner",
          "type": "address"
        },
        {
          "indexed": true,
          "internalType": "address",
          "name": "operator",
          "type": "address"
        },
        {
          "indexed": false,
          "internalType": "bool",
          "name": "approved",
          "type": "bool"
        }
      ],
      "name": "ApprovalForAll",
      "type": "event"
    },
    {
      "anonymous": false,
      "inputs": [
        {
          "indexed": false,
          "internalType": "uint256",
          "name": "_fromTokenId",
          "type": "uint256"
        },
        {
          "indexed": false,
          "internalType": "uint256",
          "name": "_toTokenId",
          "type": "uint256"
        }
      ],
      "name": "BatchMetadataUpdate",
      "type": "event"
    },
    {
      "anonymous": false,
      "inputs": [
        {
          "indexed": false,
          "internalType": "uint256",
          "name": "_tokenId",
          "type": "uint256"
        }
      ],
      "name": "MetadataUpdate",
      "type": "event"
    },
    {
      "anonymous": false,
      "inputs": [
        {
          "indexed": true,
          "internalType": "address",
          "name": "previousOwner",
          "type": "address"
        },
        {
          "indexed": true,
          "internalType": "address",
          "name": "newOwner",
          "type": "address"
        }
      ],
      "name": "OwnershipTransferred",
      "type": "event"
    },
    {
      "anonymous": false,
      "inputs": [
        {
          "indexed": true,
          "internalType": "address",
          "name": "from",
          "type": "address"
        },
        {
          "indexed": true,
          "internalType": "address",
          "name": "to",
          "type": "address"
        },
        {
          "indexed": true,
          "internalType": "uint256",
          "name": "tokenId",
          "type": "uint256"
        }
      ],
      "name": "Transfer",
      "type": "event"
    },
    {
      "inputs": [
        {
          "internalType": "address",
          "name": "to",
          "type": "address"
        },
        {
          "internalType": "uint256",
          "name": "tokenId",
          "type": "uint256"
        }
      ],
      "name": "approve",
      "outputs": [],
      "stateMutability": "nonpayable",
      "type": "function"
    },
    {
      "inputs": [
        {
          "internalType": "address",
          "name": "owner",
          "type": "address"
        }
      ],
      "name": "balanceOf",
      "outputs": [
        {
          "internalType": "uint256",
          "name": "",
          "type": "uint256"
        }
      ],
      "stateMutability": "view",
      "type": "function"
    },
    {
      "inputs": [
        {
          "internalType": "uint256",
          "name": "tokenId",
          "type": "uint256"
        }
      ],
      "name": "burn",
      "outputs": [],
      "stateMutability": "nonpayable",
      "type": "function"
    },
    {
      "inputs": [
        {
          "internalType": "uint256",
          "name": "tokenId",
          "type": "uint256"
        }
      ],
      "name": "getApproved",
      "outputs": [
        {
          "internalType": "address",
          "name": "",
          "type": "address"
        }
      ],
      "stateMutability": "view",
      "type": "function"
    },
    {
      "inputs": [],
      "name": "getTokenId",
      "outputs": [
        {
          "internalType": "uint256",
          "name": "",
          "type": "uint256"
        }
      ],
      "stateMutability": "view",
      "type": "function"
    },
    {
      "inputs": [
        {
          "internalType": "address",
          "name": "owner",
          "type": "address"
        },
        {
          "internalType": "address",
          "name": "operator",
          "type": "address"
        }
      ],
      "name": "isApprovedForAll",
      "outputs": [
        {
          "internalType": "bool",
          "name": "",
          "type": "bool"
        }
      ],
      "stateMutability": "view",
      "type": "function"
    },
    {
      "inputs": [],
      "name": "name",
      "outputs": [
        {
          "internalType": "string",
          "name": "",
          "type": "string"
        }
      ],
      "stateMutability": "view",
      "type": "function"
    },
    {
      "inputs": [],
      "name": "owner",
      "outputs": [
        {
          "internalType": "address",
          "name": "",
          "type": "address"
        }
      ],
      "stateMutability": "view",
      "type": "function"
    },
    {
      "inputs": [
        {
          "internalType": "uint256",
          "name": "tokenId",
          "type": "uint256"
        }
      ],
      "name": "ownerOf",
      "outputs": [
        {
          "internalType": "address",
          "name": "",
          "type": "address"
        }
      ],
      "stateMutability": "view",
      "type": "function"
    },
    {
      "inputs": [],
      "name": "renounceOwnership",
      "outputs": [],
      "stateMutability": "nonpayable",
      "type": "function"
    },
    {
      "inputs": [
        {
          "internalType": "address",
          "name": "to",
          "type": "address"
        },
        {
          "internalType": "string",
          "name": "uri",
          "type": "string"
        }
      ],
      "name": "safeMint",
      "outputs": [],
      "stateMutability": "nonpayable",
      "type": "function"
    },
    {
      "inputs": [
        {
          "internalType": "address",
          "name": "from",
          "type": "address"
        },
        {
          "internalType": "address",
          "name": "to",
          "type": "address"
        },
        {
          "internalType": "uint256",
          "name": "tokenId",
          "type": "uint256"
        }
      ],
      "name": "safeTransferFrom",
      "outputs": [],
      "stateMutability": "nonpayable",
      "type": "function"
    },
    {
      "inputs": [
        {
          "internalType": "address",
          "name": "from",
          "type": "address"
        },
        {
          "internalType": "address",
          "name": "to",
          "type": "address"
        },
        {
          "internalType": "uint256",
          "name": "tokenId",
          "type": "uint256"
        },
        {
          "internalType": "bytes",
          "name": "data",
          "type": "bytes"
        }
      ],
      "name": "safeTransferFrom",
      "outputs": [],
      "stateMutability": "nonpayable",
      "type": "function"
    },
    {
      "inputs": [
        {
          "internalType": "address",
          "name": "operator",
          "type": "address"
        },
        {
          "internalType": "bool",
          "name": "approved",
          "type": "bool"
        }
      ],
      "name": "setApprovalForAll",
      "outputs": [],
      "stateMutability": "nonpayable",
      "type": "function"
    },
    {
      "inputs": [
        {
          "internalType": "uint256",
          "name": "tokenId",
          "type": "uint256"
        },
        {
          "internalType": "string",
          "name": "uri",
          "type": "string"
        }
      ],
      "name": "setTokenURI",
      "outputs": [],
      "stateMutability": "nonpayable",
      "type": "function"
    },
    {
      "inputs": [
        {
          "internalType": "bytes4",
          "name": "interfaceId",
          "type": "bytes4"
        }
      ],
      "name": "supportsInterface",
      "outputs": [
        {
          "internalType": "bool",
          "name": "",
          "type": "bool"
        }
      ],
      "stateMutability": "view",
      "type": "function"
    },
    {
      "inputs": [],
      "name": "symbol",
      "outputs": [
        {
          "internalType": "string",
          "name": "",
          "type": "string"
        }
      ],
      "stateMutability": "view",
      "type": "function"
    },
    {
      "inputs": [
        {
          "internalType": "uint256",
          "name": "tokenId",
          "type": "uint256"
        }
      ],
      "name": "tokenURI",
      "outputs": [
        {
          "internalType": "string",
          "name": "",
          "type": "string"
        }
      ],
      "stateMutability": "view",
      "type": "function"
    },
    {
      "inputs": [
        {
          "internalType": "address",
          "name": "from",
          "type": "address"
        },
        {
          "internalType": "address",
          "name": "to",
          "type": "address"
        },
        {
          "internalType": "uint256",
          "name": "tokenId",
          "type": "uint256"
        }
      ],
      "name": "transferFrom",
      "outputs": [],
      "stateMutability": "nonpayable",
      "type": "function"
    },
    {
      "inputs": [
        {
          "internalType": "address",
          "name": "newOwner",
          "type": "address"
        }
      ],
      "name": "transferOwnership",
      "outputs": [],
      "stateMutability": "nonpayable",
      "type": "function"
    }
  ],
  "bytecode": "0x60806040523480156200001157600080fd5b5060405162002dd938038062002dd9833981810160405281019062000037919062000288565b806040518060400160405280600781526020017f4974656d4e4654000000000000000000000000000000000000000000000000008152506040518060400160405280600381526020017f494e5400000000000000000000000000000000000000000000000000000000008152508160009081620000b5919062000534565b508060019081620000c7919062000534565b505050600073ffffffffffffffffffffffffffffffffffffffff168173ffffffffffffffffffffffffffffffffffffffff16036200013f5760006040517f1e4fbdf70000000000000000000000000000000000000000000000000000000081526004016200013691906200062c565b60405180910390fd5b62000150816200015860201b60201c565b505062000649565b6000600760009054906101000a900473ffffffffffffffffffffffffffffffffffffffff16905081600760006101000a81548173ffffffffffffffffffffffffffffffffffffffff021916908373ffffffffffffffffffffffffffffffffffffffff1602179055508173ffffffffffffffffffffffffffffffffffffffff168173ffffffffffffffffffffffffffffffffffffffff167f8be0079c531659141344cd1fd0a4f28419497f9722a3daafe3b4186f6b6457e060405160405180910390a35050565b600080fd5b600073ffffffffffffffffffffffffffffffffffffffff82169050919050565b6000620002508262000223565b9050919050565b620002628162000243565b81146200026e57600080fd5b50565b600081519050620002828162000257565b92915050565b600060208284031215620002a157620002a06200021e565b5b6000620002b18482850162000271565b91505092915050565b600081519050919050565b7f4e487b7100000000000000000000000000000000000000000000000000000000600052604160045260246000fd5b7f4e487b7100000000000000000000000000000000000000000000000000000000600052602260045260246000fd5b600060028204905060018216806200033c57607f821691505b602082108103620003525762000351620002f4565b5b50919050565b60008190508160005260206000209050919050565b60006020601f8301049050919050565b600082821b905092915050565b600060088302620003bc7fffffffffffffffffffffffffffffffffffffffffffffffffffffffffffffffff826200037d565b620003c886836200037d565b95508019841693508086168417925050509392505050565b6000819050919050565b6000819050919050565b6000620004156200040f6200040984620003e0565b620003ea565b620003e0565b9050919050565b6000819050919050565b6200043183620003f4565b6200044962000440826200041c565b8484546200038a565b825550505050565b600090565b6200046062000451565b6200046d81848462000426565b505050565b5b8181101562000495576200048960008262000456565b60018101905062000473565b5050565b601f821115620004e457620004ae8162000358565b620004b9846200036d565b81016020851015620004c9578190505b620004e1620004d8856200036d565b83018262000472565b50505b505050565b600082821c905092915050565b60006200050960001984600802620004e9565b1980831691505092915050565b6000620005248383620004f6565b9150826002028217905092915050565b6200053f82620002ba565b67ffffffffffffffff8111156200055b576200055a620002c5565b5b62000567825462000323565b6200057482828562000499565b600060209050601f831160018114620005ac576000841562000597578287015190505b620005a3858262000516565b86555062000613565b601f198416620005bc8662000358565b60005b82811015620005e657848901518255600182019150602085019450602081019050620005bf565b8683101562000606578489015162000602601f891682620004f6565b8355505b6001600288020188555050505b505050505050565b620006268162000243565b82525050565b60006020820190506200064360008301846200061b565b92915050565b61278080620006596000396000f3fe608060405234801561001057600080fd5b506004361061012c5760003560e01c806370a08231116100ad578063b88d4fde11610071578063b88d4fde1461031b578063c87b56dd14610337578063d204c45e14610367578063e985e9c514610383578063f2fde38b146103b35761012c565b806370a0823114610289578063715018a6146102b95780638da5cb5b146102c357806395d89b41146102e1578063a22cb465146102ff5761012c565b8063162094c4116100f4578063162094c4146101e957806323b872dd1461020557806342842e0e1461022157806342966c681461023d5780636352211e146102595761012c565b8063010a38f51461013157806301ffc9a71461014f57806306fdde031461017f578063081812fc1461019d578063095ea7b3146101cd575b600080fd5b6101396103cf565b6040516101469190611b29565b60405180910390f35b61016960048036038101906101649190611bb0565b6103d9565b6040516101769190611bf8565b60405180910390f35b6101876103eb565b6040516101949190611ca3565b60405180910390f35b6101b760048036038101906101b29190611cf1565b61047d565b6040516101c49190611d5f565b60405180910390f35b6101e760048036038101906101e29190611da6565b610499565b005b61020360048036038101906101fe9190611f1b565b6104af565b005b61021f600480360381019061021a9190611f77565b6104c5565b005b61023b60048036038101906102369190611f77565b6105c7565b005b61025760048036038101906102529190611cf1565b6105e7565b005b610273600480360381019061026e9190611cf1565b6105fe565b6040516102809190611d5f565b60405180910390f35b6102a3600480360381019061029e9190611fca565b610610565b6040516102b09190611b29565b60405180910390f35b6102c16106ca565b005b6102cb6106de565b6040516102d89190611d5f565b60405180910390f35b6102e9610708565b6040516102f69190611ca3565b60405180910390f35b61031960048036038101906103149190612023565b61079a565b005b61033560048036038101906103309190612104565b6107b0565b005b610351600480360381019061034c9190611cf1565b6107cd565b60405161035e9190611ca3565b60405180910390f35b610381600480360381019061037c9190612187565b6107df565b005b61039d600480360381019061039891906121e3565b610813565b6040516103aa9190611bf8565b60405180910390f35b6103cd60048036038101906103c89190611fca565b6108a7565b005b6000600854905090565b60006103e48261092d565b9050919050565b6060600080546103fa90612252565b80601f016020809104026020016040519081016040528092919081815260200182805461042690612252565b80156104735780601f1061044857610100808354040283529160200191610473565b820191906000526020600020905b81548152906001019060200180831161045657829003601f168201915b5050505050905090565b60006104888261098e565b5061049282610a16565b9050919050565b6104ab82826104a6610a53565b610a5b565b5050565b6104b7610a6d565b6104c18282610af4565b5050565b600073ffffffffffffffffffffffffffffffffffffffff168273ffffffffffffffffffffffffffffffffffffffff16036105375760006040517f64a0ae9200000000000000000000000000000000000000000000000000000000815260040161052e9190611d5f565b60405180910390fd5b600061054b8383610546610a53565b610b50565b90508373ffffffffffffffffffffffffffffffffffffffff168173ffffffffffffffffffffffffffffffffffffffff16146105c1578382826040517f64283d7b0000000000000000000000000000000000000000000000000000000081526004016105b893929190612283565b60405180910390fd5b50505050565b6105e2838383604051806020016040528060008152506107b0565b505050565b6105fa6000826105f5610a53565b610b50565b5050565b60006106098261098e565b9050919050565b60008073ffffffffffffffffffffffffffffffffffffffff168273ffffffffffffffffffffffffffffffffffffffff16036106835760006040517f89c62b6400000000000000000000000000000000000000000000000000000000815260040161067a9190611d5f565b60405180910390fd5b600360008373ffffffffffffffffffffffffffffffffffffffff1673ffffffffffffffffffffffffffffffffffffffff168152602001908152602001600020549050919050565b6106d2610a6d565b6106dc6000610d6a565b565b6000600760009054906101000a900473ffffffffffffffffffffffffffffffffffffffff16905090565b60606001805461071790612252565b80601f016020809104026020016040519081016040528092919081815260200182805461074390612252565b80156107905780601f1061076557610100808354040283529160200191610790565b820191906000526020600020905b81548152906001019060200180831161077357829003601f168201915b5050505050905090565b6107ac6107a5610a53565b8383610e30565b5050565b6107bb8484846104c5565b6107c784848484610f9f565b50505050565b60606107d882611156565b9050919050565b6000600860008154809291906107f4906122e9565b9190505590506108048382611269565b61080e8183610af4565b505050565b6000600560008473ffffffffffffffffffffffffffffffffffffffff1673ffffffffffffffffffffffffffffffffffffffff16815260200190815260200160002060008373ffffffffffffffffffffffffffffffffffffffff1673ffffffffffffffffffffffffffffffffffffffff16815260200190815260200160002060009054906101000a900460ff16905092915050565b6108af610a6d565b600073ffffffffffffffffffffffffffffffffffffffff168173ffffffffffffffffffffffffffffffffffffffff16036109215760006040517f1e4fbdf70000000000000000000000000000000000000000000000000000000081526004016109189190611d5f565b60405180910390fd5b61092a81610d6a565b50565b6000634906490660e01b7bffffffffffffffffffffffffffffffffffffffffffffffffffffffff1916827bffffffffffffffffffffffffffffffffffffffffffffffffffffffff19161480610987575061098682611287565b5b9050919050565b60008061099a83611369565b9050600073ffffffffffffffffffffffffffffffffffffffff168173ffffffffffffffffffffffffffffffffffffffff1603610a0d57826040517f7e273289000000000000000000000000000000000000000000000000000000008152600401610a049190611b29565b60405180910390fd5b80915050919050565b60006004600083815260200190815260200160002060009054906101000a900473ffffffffffffffffffffffffffffffffffffffff169050919050565b600033905090565b610a6883838360016113a6565b505050565b610a75610a53565b73ffffffffffffffffffffffffffffffffffffffff16610a936106de565b73ffffffffffffffffffffffffffffffffffffffff1614610af257610ab6610a53565b6040517f118cdaa7000000000000000000000000000000000000000000000000000000008152600401610ae99190611d5f565b60405180910390fd5b565b80600660008481526020019081526020016000209081610b1491906124dd565b507ff8e1a15aba9398e019f0b49df1a4fde98ee17ae345cb5f6b5e2c27f5033e8ce782604051610b449190611b29565b60405180910390a15050565b600080610b5c84611369565b9050600073ffffffffffffffffffffffffffffffffffffffff168373ffffffffffffffffffffffffffffffffffffffff1614610b9e57610b9d81848661156b565b5b600073ffffffffffffffffffffffffffffffffffffffff168173ffffffffffffffffffffffffffffffffffffffff1614610c2f57610be06000856000806113a6565b6001600360008373ffffffffffffffffffffffffffffffffffffffff1673ffffffffffffffffffffffffffffffffffffffff168152602001908152602001600020600082825403925050819055505b600073ffffffffffffffffffffffffffffffffffffffff168573ffffffffffffffffffffffffffffffffffffffff1614610cb2576001600360008773ffffffffffffffffffffffffffffffffffffffff1673ffffffffffffffffffffffffffffffffffffffff168152602001908152602001600020600082825401925050819055505b846002600086815260200190815260200160002060006101000a81548173ffffffffffffffffffffffffffffffffffffffff021916908373ffffffffffffffffffffffffffffffffffffffff160217905550838573ffffffffffffffffffffffffffffffffffffffff168273ffffffffffffffffffffffffffffffffffffffff167fddf252ad1be2c89b69c2b068fc378daa952ba7f163c4a11628f55a4df523b3ef60405160405180910390a4809150509392505050565b6000600760009054906101000a900473ffffffffffffffffffffffffffffffffffffffff16905081600760006101000a81548173ffffffffffffffffffffffffffffffffffffffff021916908373ffffffffffffffffffffffffffffffffffffffff1602179055508173ffffffffffffffffffffffffffffffffffffffff168173ffffffffffffffffffffffffffffffffffffffff167f8be0079c531659141344cd1fd0a4f28419497f9722a3daafe3b4186f6b6457e060405160405180910390a35050565b600073ffffffffffffffffffffffffffffffffffffffff168273ffffffffffffffffffffffffffffffffffffffff1603610ea157816040517f5b08ba18000000000000000000000000000000000000000000000000000000008152600401610e989190611d5f565b60405180910390fd5b80600560008573ffffffffffffffffffffffffffffffffffffffff1673ffffffffffffffffffffffffffffffffffffffff16815260200190815260200160002060008473ffffffffffffffffffffffffffffffffffffffff1673ffffffffffffffffffffffffffffffffffffffff16815260200190815260200160002060006101000a81548160ff0219169083151502179055508173ffffffffffffffffffffffffffffffffffffffff168373ffffffffffffffffffffffffffffffffffffffff167f17307eab39ab6107e8899845ad3d59bd9653f200f220920489ca2b5937696c3183604051610f929190611bf8565b60405180910390a3505050565b60008373ffffffffffffffffffffffffffffffffffffffff163b1115611150578273ffffffffffffffffffffffffffffffffffffffff1663150b7a02610fe3610a53565b8685856040518563ffffffff1660e01b81526004016110059493929190612604565b6020604051808303816000875af192505050801561104157506040513d601f19601f8201168201806040525081019061103e9190612665565b60015b6110c5573d8060008114611071576040519150601f19603f3d011682016040523d82523d6000602084013e611076565b606091505b5060008151036110bd57836040517f64a0ae920000000000000000000000000000000000000000000000000000000081526004016110b49190611d5f565b60405180910390fd5b805181602001fd5b63150b7a0260e01b7bffffffffffffffffffffffffffffffffffffffffffffffffffffffff1916817bffffffffffffffffffffffffffffffffffffffffffffffffffffffff19161461114e57836040517f64a0ae920000000000000000000000000000000000000000000000000000000081526004016111459190611d5f565b60405180910390fd5b505b50505050565b60606111618261098e565b50600060066000848152602001908152602001600020805461118290612252565b80601f01602080910402602001604051908101604052809291908181526020018280546111ae90612252565b80156111fb5780601f106111d0576101008083540402835291602001916111fb565b820191906000526020600020905b8154815290600101906020018083116111de57829003601f168201915b50505050509050600061120c61162f565b90506000815103611221578192505050611264565b60008251111561125657808260405160200161123e9291906126ce565b60405160208183030381529060405292505050611264565b61125f84611646565b925050505b919050565b6112838282604051806020016040528060008152506116af565b5050565b60007f80ac58cd000000000000000000000000000000000000000000000000000000007bffffffffffffffffffffffffffffffffffffffffffffffffffffffff1916827bffffffffffffffffffffffffffffffffffffffffffffffffffffffff1916148061135257507f5b5e139f000000000000000000000000000000000000000000000000000000007bffffffffffffffffffffffffffffffffffffffffffffffffffffffff1916827bffffffffffffffffffffffffffffffffffffffffffffffffffffffff1916145b806113625750611361826116cb565b5b9050919050565b60006002600083815260200190815260200160002060009054906101000a900473ffffffffffffffffffffffffffffffffffffffff169050919050565b80806113df5750600073ffffffffffffffffffffffffffffffffffffffff168273ffffffffffffffffffffffffffffffffffffffff1614155b156115135760006113ef8461098e565b9050600073ffffffffffffffffffffffffffffffffffffffff168373ffffffffffffffffffffffffffffffffffffffff161415801561145a57508273ffffffffffffffffffffffffffffffffffffffff168173ffffffffffffffffffffffffffffffffffffffff1614155b801561146d575061146b8184610813565b155b156114af57826040517fa9fbf51f0000000000000000000000000000000000000000000000000000000081526004016114a69190611d5f565b60405180910390fd5b811561151157838573ffffffffffffffffffffffffffffffffffffffff168273ffffffffffffffffffffffffffffffffffffffff167f8c5be1e5ebec7d5bd14f71427d1e84f3dd0314c0f7b2291e5b200ac8c7c3b92560405160405180910390a45b505b836004600085815260200190815260200160002060006101000a81548173ffffffffffffffffffffffffffffffffffffffff021916908373ffffffffffffffffffffffffffffffffffffffff16021790555050505050565b611576838383611735565b61162a57600073ffffffffffffffffffffffffffffffffffffffff168373ffffffffffffffffffffffffffffffffffffffff16036115eb57806040517f7e2732890000000000000000000000000000000000000000000000000000000081526004016115e29190611b29565b60405180910390fd5b81816040517f177e802f0000000000000000000000000000000000000000000000000000000081526004016116219291906126f2565b60405180910390fd5b505050565b606060405180602001604052806000815250905090565b60606116518261098e565b50600061165c61162f565b9050600081511161167c57604051806020016040528060008152506116a7565b80611686846117f6565b6040516020016116979291906126ce565b6040516020818303038152906040525b915050919050565b6116b983836118c4565b6116c66000848484610f9f565b505050565b60007f01ffc9a7000000000000000000000000000000000000000000000000000000007bffffffffffffffffffffffffffffffffffffffffffffffffffffffff1916827bffffffffffffffffffffffffffffffffffffffffffffffffffffffff1916149050919050565b60008073ffffffffffffffffffffffffffffffffffffffff168373ffffffffffffffffffffffffffffffffffffffff16141580156117ed57508273ffffffffffffffffffffffffffffffffffffffff168473ffffffffffffffffffffffffffffffffffffffff1614806117ae57506117ad8484610813565b5b806117ec57508273ffffffffffffffffffffffffffffffffffffffff166117d483610a16565b73ffffffffffffffffffffffffffffffffffffffff16145b5b90509392505050565b606060006001611805846119bd565b01905060008167ffffffffffffffff81111561182457611823611df0565b5b6040519080825280601f01601f1916602001820160405280156118565781602001600182028036833780820191505090505b509050600082602001820190505b6001156118b9578080600190039150507f3031323334353637383961626364656600000000000000000000000000000000600a86061a8153600a85816118ad576118ac61271b565b5b04945060008503611864575b819350505050919050565b600073ffffffffffffffffffffffffffffffffffffffff168273ffffffffffffffffffffffffffffffffffffffff16036119365760006040517f64a0ae9200000000000000000000000000000000000000000000000000000000815260040161192d9190611d5f565b60405180910390fd5b600061194483836000610b50565b9050600073ffffffffffffffffffffffffffffffffffffffff168173ffffffffffffffffffffffffffffffffffffffff16146119b85760006040517f73c6ac6e0000000000000000000000000000000000000000000000000000000081526004016119af9190611d5f565b60405180910390fd5b505050565b600080600090507a184f03e93ff9f4daa797ed6e38ed64bf6a1f0100000000000000008310611a1b577a184f03e93ff9f4daa797ed6e38ed64bf6a1f0100000000000000008381611a1157611a1061271b565b5b0492506040810190505b6d04ee2d6d415b85acef81000000008310611a58576d04ee2d6d415b85acef81000000008381611a4e57611a4d61271b565b5b0492506020810190505b662386f26fc100008310611a8757662386f26fc100008381611a7d57611a7c61271b565b5b0492506010810190505b6305f5e1008310611ab0576305f5e1008381611aa657611aa561271b565b5b0492506008810190505b6127108310611ad5576127108381611acb57611aca61271b565b5b0492506004810190505b60648310611af85760648381611aee57611aed61271b565b5b0492506002810190505b600a8310611b07576001810190505b80915050919050565b6000819050919050565b611b2381611b10565b82525050565b6000602082019050611b3e6000830184611b1a565b92915050565b6000604051905090565b600080fd5b600080fd5b60007fffffffff0000000000000000000000000000000000000000000000000000000082169050919050565b611b8d81611b58565b8114611b9857600080fd5b50565b600081359050611baa81611b84565b92915050565b600060208284031215611bc657611bc5611b4e565b5b6000611bd484828501611b9b565b91505092915050565b60008115159050919050565b611bf281611bdd565b82525050565b6000602082019050611c0d6000830184611be9565b92915050565b600081519050919050565b600082825260208201905092915050565b60005b83811015611c4d578082015181840152602081019050611c32565b60008484015250505050565b6000601f19601f8301169050919050565b6000611c7582611c13565b611c7f8185611c1e565b9350611c8f818560208601611c2f565b611c9881611c59565b840191505092915050565b60006020820190508181036000830152611cbd8184611c6a565b905092915050565b611cce81611b10565b8114611cd957600080fd5b50565b600081359050611ceb81611cc5565b92915050565b600060208284031215611d0757611d06611b4e565b5b6000611d1584828501611cdc565b91505092915050565b600073ffffffffffffffffffffffffffffffffffffffff82169050919050565b6000611d4982611d1e565b9050919050565b611d5981611d3e565b82525050565b6000602082019050611d746000830184611d50565b92915050565b611d8381611d3e565b8114611d8e57600080fd5b50565b600081359050611da081611d7a565b92915050565b60008060408385031215611dbd57611dbc611b4e565b5b6000611dcb85828601611d91565b9250506020611ddc85828601611cdc565b9150509250929050565b600080fd5b600080fd5b7f4e487b7100000000000000000000000000000000000000000000000000000000600052604160045260246000fd5b611e2882611c59565b810181811067ffffffffffffffff82111715611e4757611e46611df0565b5b80604052505050565b6000611e5a611b44565b9050611e668282611e1f565b919050565b600067ffffffffffffffff821115611e8657611e85611df0565b5b611e8f82611c59565b9050602081019050919050565b82818337600083830152505050565b6000611ebe611eb984611e6b565b611e50565b905082815260208101848484011115611eda57611ed9611deb565b5b611ee5848285611e9c565b509392505050565b600082601f830112611f0257611f01611de6565b5b8135611f12848260208601611eab565b91505092915050565b60008060408385031215611f3257611f31611b4e565b5b6000611f4085828601611cdc565b925050602083013567ffffffffffffffff811115611f6157611f60611b53565b5b611f6d85828601611eed565b9150509250929050565b600080600060608486031215611f9057611f8f611b4e565b5b6000611f9e86828701611d91565b9350506020611faf86828701611d91565b9250506040611fc086828701611cdc565b9150509250925092565b600060208284031215611fe057611fdf611b4e565b5b6000611fee84828501611d91565b91505092915050565b61200081611bdd565b811461200b57600080fd5b50565b60008135905061201d81611ff7565b92915050565b6000806040838503121561203a57612039611b4e565b5b600061204885828601611d91565b92505060206120598582860161200e565b9150509250929050565b600067ffffffffffffffff82111561207e5761207d611df0565b5b61208782611c59565b9050602081019050919050565b60006120a76120a284612063565b611e50565b9050828152602081018484840111156120c3576120c2611deb565b5b6120ce848285611e9c565b509392505050565b600082601f8301126120eb576120ea611de6565b5b81356120fb848260208601612094565b91505092915050565b6000806000806080858703121561211e5761211d611b4e565b5b600061212c87828801611d91565b945050602061213d87828801611d91565b935050604061214e87828801611cdc565b925050606085013567ffffffffffffffff81111561216f5761216e611b53565b5b61217b878288016120d6565b91505092959194509250565b6000806040838503121561219e5761219d611b4e565b5b60006121ac85828601611d91565b925050602083013567ffffffffffffffff8111156121cd576121cc611b53565b5b6121d985828601611eed565b9150509250929050565b600080604083850312156121fa576121f9611b4e565b5b600061220885828601611d91565b925050602061221985828601611d91565b9150509250929050565b7f4e487b7100000000000000000000000000000000000000000000000000000000600052602260045260246000fd5b6000600282049050600182168061226a57607f821691505b60208210810361227d5761227c612223565b5b50919050565b60006060820190506122986000830186611d50565b6122a56020830185611b1a565b6122b26040830184611d50565b949350505050565b7f4e487b7100000000000000000000000000000000000000000000000000000000600052601160045260246000fd5b60006122f482611b10565b91507fffffffffffffffffffffffffffffffffffffffffffffffffffffffffffffffff8203612326576123256122ba565b5b600182019050919050565b60008190508160005260206000209050919050565b60006020601f8301049050919050565b600082821b905092915050565b6000600883026123937fffffffffffffffffffffffffffffffffffffffffffffffffffffffffffffffff82612356565b61239d8683612356565b95508019841693508086168417925050509392505050565b6000819050919050565b60006123da6123d56123d084611b10565b6123b5565b611b10565b9050919050565b6000819050919050565b6123f4836123bf565b612408612400826123e1565b848454612363565b825550505050565b600090565b61241d612410565b6124288184846123eb565b505050565b5b8181101561244c57612441600082612415565b60018101905061242e565b5050565b601f8211156124915761246281612331565b61246b84612346565b8101602085101561247a578190505b61248e61248685612346565b83018261242d565b50505b505050565b600082821c905092915050565b60006124b460001984600802612496565b1980831691505092915050565b60006124cd83836124a3565b9150826002028217905092915050565b6124e682611c13565b67ffffffffffffffff8111156124ff576124fe611df0565b5b6125098254612252565b612514828285612450565b600060209050601f8311600181146125475760008415612535578287015190505b61253f85826124c1565b8655506125a7565b601f19841661255586612331565b60005b8281101561257d57848901518255600182019150602085019450602081019050612558565b8683101561259a5784890151612596601f8916826124a3565b8355505b6001600288020188555050505b505050505050565b600081519050919050565b600082825260208201905092915050565b60006125d6826125af565b6125e081856125ba565b93506125f0818560208601611c2f565b6125f981611c59565b840191505092915050565b60006080820190506126196000830187611d50565b6126266020830186611d50565b6126336040830185611b1a565b818103606083015261264581846125cb565b905095945050505050565b60008151905061265f81611b84565b92915050565b60006020828403121561267b5761267a611b4e565b5b600061268984828501612650565b91505092915050565b600081905092915050565b60006126a882611c13565b6126b28185612692565b93506126c2818560208601611c2f565b80840191505092915050565b60006126da828561269d565b91506126e6828461269d565b91508190509392505050565b60006040820190506127076000830185611d50565b6127146020830184611b1a565b9392505050565b7f4e487b7100000000000000000000000000000000000000000000000000000000600052601260045260246000fdfea2646970667358221220b769f8930c91569bdbdabd2f8cd0bb15fbb40d4eb2d6b034ab632b2ee82bf48964736f6c63430008180033",
  "linkReferences": {},
  "deployedLinkReferences": {}
}