{
  "_format": "hh-sol-artifact-1",
  "contractName": "ItemNFT",
  "sourceName": "contracts/nfts/ItemNFT.sol",
  "abi": [
    {
      "inputs": [
        {
          "internalType": "address",
          "name": "initialOwner",
          "type": "address"
        }
      ],
      "stateMutability": "nonpayable",
      "type": "constructor"
    },
    {
      "inputs": [
        {
          "internalType": "address",
          "name": "sender",
          "type": "address"
        },
        {
          "internalType": "uint256",
          "name": "tokenId",
          "type": "uint256"
        },
        {
          "internalType": "address",
          "name": "owner",
          "type": "address"
        }
      ],
      "name": "ERC721IncorrectOwner",
      "type": "error"
    },
    {
      "inputs": [
        {
          "internalType": "address",
          "name": "operator",
          "type": "address"
        },
        {
          "internalType": "uint256",
          "name": "tokenId",
          "type": "uint256"
        }
      ],
      "name": "ERC721InsufficientApproval",
      "type": "error"
    },
    {
      "inputs": [
        {
          "internalType": "address",
          "name": "approver",
          "type": "address"
        }
      ],
      "name": "ERC721InvalidApprover",
      "type": "error"
    },
    {
      "inputs": [
        {
          "internalType": "address",
          "name": "operator",
          "type": "address"
        }
      ],
      "name": "ERC721InvalidOperator",
      "type": "error"
    },
    {
      "inputs": [
        {
          "internalType": "address",
          "name": "owner",
          "type": "address"
        }
      ],
      "name": "ERC721InvalidOwner",
      "type": "error"
    },
    {
      "inputs": [
        {
          "internalType": "address",
          "name": "receiver",
          "type": "address"
        }
      ],
      "name": "ERC721InvalidReceiver",
      "type": "error"
    },
    {
      "inputs": [
        {
          "internalType": "address",
          "name": "sender",
          "type": "address"
        }
      ],
      "name": "ERC721InvalidSender",
      "type": "error"
    },
    {
      "inputs": [
        {
          "internalType": "uint256",
          "name": "tokenId",
          "type": "uint256"
        }
      ],
      "name": "ERC721NonexistentToken",
      "type": "error"
    },
    {
      "inputs": [
        {
          "internalType": "address",
          "name": "owner",
          "type": "address"
        }
      ],
      "name": "OwnableInvalidOwner",
      "type": "error"
    },
    {
      "inputs": [
        {
          "internalType": "address",
          "name": "account",
          "type": "address"
        }
      ],
      "name": "OwnableUnauthorizedAccount",
      "type": "error"
    },
    {
      "anonymous": false,
      "inputs": [
        {
          "indexed": true,
          "internalType": "address",
          "name": "owner",
          "type": "address"
        },
        {
          "indexed": true,
          "internalType": "address",
          "name": "approved",
          "type": "address"
        },
        {
          "indexed": true,
          "internalType": "uint256",
          "name": "tokenId",
          "type": "uint256"
        }
      ],
      "name": "Approval",
      "type": "event"
    },
    {
      "anonymous": false,
      "inputs": [
        {
          "indexed": true,
          "internalType": "address",
          "name": "owner",
          "type": "address"
        },
        {
          "indexed": true,
          "internalType": "address",
          "name": "operator",
          "type": "address"
        },
        {
          "indexed": false,
          "internalType": "bool",
          "name": "approved",
          "type": "bool"
        }
      ],
      "name": "ApprovalForAll",
      "type": "event"
    },
    {
      "anonymous": false,
      "inputs": [
        {
          "indexed": false,
          "internalType": "uint256",
          "name": "_fromTokenId",
          "type": "uint256"
        },
        {
          "indexed": false,
          "internalType": "uint256",
          "name": "_toTokenId",
          "type": "uint256"
        }
      ],
      "name": "BatchMetadataUpdate",
      "type": "event"
    },
    {
      "anonymous": false,
      "inputs": [
        {
          "indexed": false,
          "internalType": "uint256",
          "name": "_tokenId",
          "type": "uint256"
        }
      ],
      "name": "MetadataUpdate",
      "type": "event"
    },
    {
      "anonymous": false,
      "inputs": [
        {
          "indexed": false,
          "internalType": "address",
          "name": "to",
          "type": "address"
        },
        {
          "indexed": false,
          "internalType": "uint256",
          "name": "tokenId",
          "type": "uint256"
        },
        {
          "indexed": false,
          "internalType": "string",
          "name": "url",
          "type": "string"
        }
      ],
      "name": "Mint",
      "type": "event"
    },
    {
      "anonymous": false,
      "inputs": [
        {
          "indexed": true,
          "internalType": "address",
          "name": "previousOwner",
          "type": "address"
        },
        {
          "indexed": true,
          "internalType": "address",
          "name": "newOwner",
          "type": "address"
        }
      ],
      "name": "OwnershipTransferred",
      "type": "event"
    },
    {
      "anonymous": false,
      "inputs": [
        {
          "indexed": false,
          "internalType": "uint256",
          "name": "tokenId",
          "type": "uint256"
        },
        {
          "indexed": false,
          "internalType": "string",
          "name": "uri",
          "type": "string"
        }
      ],
      "name": "TokenURISet",
      "type": "event"
    },
    {
      "anonymous": false,
      "inputs": [
        {
          "indexed": true,
          "internalType": "address",
          "name": "from",
          "type": "address"
        },
        {
          "indexed": true,
          "internalType": "address",
          "name": "to",
          "type": "address"
        },
        {
          "indexed": true,
          "internalType": "uint256",
          "name": "tokenId",
          "type": "uint256"
        }
      ],
      "name": "Transfer",
      "type": "event"
    },
    {
      "inputs": [
        {
          "internalType": "address",
          "name": "to",
          "type": "address"
        },
        {
          "internalType": "uint256",
          "name": "tokenId",
          "type": "uint256"
        }
      ],
      "name": "approve",
      "outputs": [],
      "stateMutability": "nonpayable",
      "type": "function"
    },
    {
      "inputs": [
        {
          "internalType": "address",
          "name": "owner",
          "type": "address"
        }
      ],
      "name": "balanceOf",
      "outputs": [
        {
          "internalType": "uint256",
          "name": "",
          "type": "uint256"
        }
      ],
      "stateMutability": "view",
      "type": "function"
    },
    {
      "inputs": [
        {
          "internalType": "uint256",
          "name": "tokenId",
          "type": "uint256"
        }
      ],
      "name": "burn",
      "outputs": [],
      "stateMutability": "nonpayable",
      "type": "function"
    },
    {
      "inputs": [
        {
          "internalType": "uint256",
          "name": "tokenId",
          "type": "uint256"
        }
      ],
      "name": "getApproved",
      "outputs": [
        {
          "internalType": "address",
          "name": "",
          "type": "address"
        }
      ],
      "stateMutability": "view",
      "type": "function"
    },
    {
      "inputs": [],
      "name": "getTotalTokens",
      "outputs": [
        {
          "internalType": "uint256",
          "name": "",
          "type": "uint256"
        }
      ],
      "stateMutability": "view",
      "type": "function"
    },
    {
      "inputs": [
        {
          "internalType": "address",
          "name": "owner",
          "type": "address"
        },
        {
          "internalType": "address",
          "name": "operator",
          "type": "address"
        }
      ],
      "name": "isApprovedForAll",
      "outputs": [
        {
          "internalType": "bool",
          "name": "",
          "type": "bool"
        }
      ],
      "stateMutability": "view",
      "type": "function"
    },
    {
      "inputs": [],
      "name": "name",
      "outputs": [
        {
          "internalType": "string",
          "name": "",
          "type": "string"
        }
      ],
      "stateMutability": "view",
      "type": "function"
    },
    {
      "inputs": [],
      "name": "owner",
      "outputs": [
        {
          "internalType": "address",
          "name": "",
          "type": "address"
        }
      ],
      "stateMutability": "view",
      "type": "function"
    },
    {
      "inputs": [
        {
          "internalType": "uint256",
          "name": "tokenId",
          "type": "uint256"
        }
      ],
      "name": "ownerOf",
      "outputs": [
        {
          "internalType": "address",
          "name": "",
          "type": "address"
        }
      ],
      "stateMutability": "view",
      "type": "function"
    },
    {
      "inputs": [],
      "name": "renounceOwnership",
      "outputs": [],
      "stateMutability": "nonpayable",
      "type": "function"
    },
    {
      "inputs": [
        {
          "internalType": "address",
          "name": "to",
          "type": "address"
        },
        {
          "internalType": "string",
          "name": "uri",
          "type": "string"
        }
      ],
      "name": "safeMint",
      "outputs": [],
      "stateMutability": "nonpayable",
      "type": "function"
    },
    {
      "inputs": [
        {
          "internalType": "address",
          "name": "from",
          "type": "address"
        },
        {
          "internalType": "address",
          "name": "to",
          "type": "address"
        },
        {
          "internalType": "uint256",
          "name": "tokenId",
          "type": "uint256"
        }
      ],
      "name": "safeTransferFrom",
      "outputs": [],
      "stateMutability": "nonpayable",
      "type": "function"
    },
    {
      "inputs": [
        {
          "internalType": "address",
          "name": "from",
          "type": "address"
        },
        {
          "internalType": "address",
          "name": "to",
          "type": "address"
        },
        {
          "internalType": "uint256",
          "name": "tokenId",
          "type": "uint256"
        },
        {
          "internalType": "bytes",
          "name": "data",
          "type": "bytes"
        }
      ],
      "name": "safeTransferFrom",
      "outputs": [],
      "stateMutability": "nonpayable",
      "type": "function"
    },
    {
      "inputs": [
        {
          "internalType": "address",
          "name": "operator",
          "type": "address"
        },
        {
          "internalType": "bool",
          "name": "approved",
          "type": "bool"
        }
      ],
      "name": "setApprovalForAll",
      "outputs": [],
      "stateMutability": "nonpayable",
      "type": "function"
    },
    {
      "inputs": [
        {
          "internalType": "uint256",
          "name": "tokenId",
          "type": "uint256"
        },
        {
          "internalType": "string",
          "name": "uri",
          "type": "string"
        }
      ],
      "name": "setTokenURI",
      "outputs": [],
      "stateMutability": "nonpayable",
      "type": "function"
    },
    {
      "inputs": [
        {
          "internalType": "bytes4",
          "name": "interfaceId",
          "type": "bytes4"
        }
      ],
      "name": "supportsInterface",
      "outputs": [
        {
          "internalType": "bool",
          "name": "",
          "type": "bool"
        }
      ],
      "stateMutability": "view",
      "type": "function"
    },
    {
      "inputs": [],
      "name": "symbol",
      "outputs": [
        {
          "internalType": "string",
          "name": "",
          "type": "string"
        }
      ],
      "stateMutability": "view",
      "type": "function"
    },
    {
      "inputs": [
        {
          "internalType": "uint256",
          "name": "tokenId",
          "type": "uint256"
        }
      ],
      "name": "tokenURI",
      "outputs": [
        {
          "internalType": "string",
          "name": "",
          "type": "string"
        }
      ],
      "stateMutability": "view",
      "type": "function"
    },
    {
      "inputs": [
        {
          "internalType": "address",
          "name": "from",
          "type": "address"
        },
        {
          "internalType": "address",
          "name": "to",
          "type": "address"
        },
        {
          "internalType": "uint256",
          "name": "tokenId",
          "type": "uint256"
        }
      ],
      "name": "transferFrom",
      "outputs": [],
      "stateMutability": "nonpayable",
      "type": "function"
    },
    {
      "inputs": [
        {
          "internalType": "address",
          "name": "newOwner",
          "type": "address"
        }
      ],
      "name": "transferOwnership",
      "outputs": [],
      "stateMutability": "nonpayable",
      "type": "function"
    }
  ],
  "bytecode": "0x60806040523480156200001157600080fd5b506040516200304d3803806200304d83398181016040528101906200003791906200040e565b806040518060400160405280600781526020017f4974656d4e4654000000000000000000000000000000000000000000000000008152506040518060400160405280600381526020017f494e5400000000000000000000000000000000000000000000000000000000008152508160009081620000b59190620006ba565b508060019081620000c79190620006ba565b505050600073ffffffffffffffffffffffffffffffffffffffff168173ffffffffffffffffffffffffffffffffffffffff16036200013f5760006040517f1e4fbdf7000000000000000000000000000000000000000000000000000000008152600401620001369190620007b2565b60405180910390fd5b62000150816200017160201b60201c565b5062000162816200023760201b60201c565b600160088190555050620007cf565b6000600760009054906101000a900473ffffffffffffffffffffffffffffffffffffffff16905081600760006101000a81548173ffffffffffffffffffffffffffffffffffffffff021916908373ffffffffffffffffffffffffffffffffffffffff1602179055508173ffffffffffffffffffffffffffffffffffffffff168173ffffffffffffffffffffffffffffffffffffffff167f8be0079c531659141344cd1fd0a4f28419497f9722a3daafe3b4186f6b6457e060405160405180910390a35050565b62000247620002d060201b60201c565b600073ffffffffffffffffffffffffffffffffffffffff168173ffffffffffffffffffffffffffffffffffffffff1603620002bc5760006040517f1e4fbdf7000000000000000000000000000000000000000000000000000000008152600401620002b39190620007b2565b60405180910390fd5b620002cd816200017160201b60201c565b50565b620002e06200037260201b60201c565b73ffffffffffffffffffffffffffffffffffffffff16620003066200037a60201b60201c565b73ffffffffffffffffffffffffffffffffffffffff16146200037057620003326200037260201b60201c565b6040517f118cdaa7000000000000000000000000000000000000000000000000000000008152600401620003679190620007b2565b60405180910390fd5b565b600033905090565b6000600760009054906101000a900473ffffffffffffffffffffffffffffffffffffffff16905090565b600080fd5b600073ffffffffffffffffffffffffffffffffffffffff82169050919050565b6000620003d682620003a9565b9050919050565b620003e881620003c9565b8114620003f457600080fd5b50565b6000815190506200040881620003dd565b92915050565b600060208284031215620004275762000426620003a4565b5b60006200043784828501620003f7565b91505092915050565b600081519050919050565b7f4e487b7100000000000000000000000000000000000000000000000000000000600052604160045260246000fd5b7f4e487b7100000000000000000000000000000000000000000000000000000000600052602260045260246000fd5b60006002820490506001821680620004c257607f821691505b602082108103620004d857620004d76200047a565b5b50919050565b60008190508160005260206000209050919050565b60006020601f8301049050919050565b600082821b905092915050565b600060088302620005427fffffffffffffffffffffffffffffffffffffffffffffffffffffffffffffffff8262000503565b6200054e868362000503565b95508019841693508086168417925050509392505050565b6000819050919050565b6000819050919050565b60006200059b620005956200058f8462000566565b62000570565b62000566565b9050919050565b6000819050919050565b620005b7836200057a565b620005cf620005c682620005a2565b84845462000510565b825550505050565b600090565b620005e6620005d7565b620005f3818484620005ac565b505050565b5b818110156200061b576200060f600082620005dc565b600181019050620005f9565b5050565b601f8211156200066a576200063481620004de565b6200063f84620004f3565b810160208510156200064f578190505b620006676200065e85620004f3565b830182620005f8565b50505b505050565b600082821c905092915050565b60006200068f600019846008026200066f565b1980831691505092915050565b6000620006aa83836200067c565b9150826002028217905092915050565b620006c58262000440565b67ffffffffffffffff811115620006e157620006e06200044b565b5b620006ed8254620004a9565b620006fa8282856200061f565b600060209050601f8311600181146200073257600084156200071d578287015190505b6200072985826200069c565b86555062000799565b601f1984166200074286620004de565b60005b828110156200076c5784890151825560018201915060208501945060208101905062000745565b868310156200078c578489015162000788601f8916826200067c565b8355505b6001600288020188555050505b505050505050565b620007ac81620003c9565b82525050565b6000602082019050620007c96000830184620007a1565b92915050565b61286e80620007df6000396000f3fe608060405234801561001057600080fd5b506004361061012c5760003560e01c8063715018a6116100ad578063c87b56dd11610071578063c87b56dd14610319578063d204c45e14610349578063e985e9c514610365578063f08b82e614610395578063f2fde38b146103b35761012c565b8063715018a61461029b5780638da5cb5b146102a557806395d89b41146102c3578063a22cb465146102e1578063b88d4fde146102fd5761012c565b806323b872dd116100f457806323b872dd146101e757806342842e0e1461020357806342966c681461021f5780636352211e1461023b57806370a082311461026b5761012c565b806301ffc9a71461013157806306fdde0314610161578063081812fc1461017f578063095ea7b3146101af578063162094c4146101cb575b600080fd5b61014b60048036038101906101469190611bfc565b6103cf565b6040516101589190611c44565b60405180910390f35b6101696103e1565b6040516101769190611cef565b60405180910390f35b61019960048036038101906101949190611d47565b610473565b6040516101a69190611db5565b60405180910390f35b6101c960048036038101906101c49190611dfc565b61048f565b005b6101e560048036038101906101e09190611f71565b6104a5565b005b61020160048036038101906101fc9190611fcd565b6104f4565b005b61021d60048036038101906102189190611fcd565b6105f6565b005b61023960048036038101906102349190611d47565b610616565b005b61025560048036038101906102509190611d47565b61062d565b6040516102629190611db5565b60405180910390f35b61028560048036038101906102809190612020565b61063f565b604051610292919061205c565b60405180910390f35b6102a36106f9565b005b6102ad61070d565b6040516102ba9190611db5565b60405180910390f35b6102cb610737565b6040516102d89190611cef565b60405180910390f35b6102fb60048036038101906102f691906120a3565b6107c9565b005b61031760048036038101906103129190612184565b6107df565b005b610333600480360381019061032e9190611d47565b6107fc565b6040516103409190611cef565b60405180910390f35b610363600480360381019061035e9190612207565b61080e565b005b61037f600480360381019061037a9190612263565b610889565b60405161038c9190611c44565b60405180910390f35b61039d61091d565b6040516103aa919061205c565b60405180910390f35b6103cd60048036038101906103c89190612020565b610927565b005b60006103da826109ad565b9050919050565b6060600080546103f0906122d2565b80601f016020809104026020016040519081016040528092919081815260200182805461041c906122d2565b80156104695780601f1061043e57610100808354040283529160200191610469565b820191906000526020600020905b81548152906001019060200180831161044c57829003601f168201915b5050505050905090565b600061047e82610a0e565b5061048882610a96565b9050919050565b6104a1828261049c610ad3565b610adb565b5050565b6104ad610aed565b6104b78282610b74565b7fda84ca2183491f179a603e877b2cb058e42195041c2b9c53d746427e519a34df82826040516104e8929190612303565b60405180910390a15050565b600073ffffffffffffffffffffffffffffffffffffffff168273ffffffffffffffffffffffffffffffffffffffff16036105665760006040517f64a0ae9200000000000000000000000000000000000000000000000000000000815260040161055d9190611db5565b60405180910390fd5b600061057a8383610575610ad3565b610bd0565b90508373ffffffffffffffffffffffffffffffffffffffff168173ffffffffffffffffffffffffffffffffffffffff16146105f0578382826040517f64283d7b0000000000000000000000000000000000000000000000000000000081526004016105e793929190612333565b60405180910390fd5b50505050565b610611838383604051806020016040528060008152506107df565b505050565b610629600082610624610ad3565b610bd0565b5050565b600061063882610a0e565b9050919050565b60008073ffffffffffffffffffffffffffffffffffffffff168273ffffffffffffffffffffffffffffffffffffffff16036106b25760006040517f89c62b640000000000000000000000000000000000000000000000000000000081526004016106a99190611db5565b60405180910390fd5b600360008373ffffffffffffffffffffffffffffffffffffffff1673ffffffffffffffffffffffffffffffffffffffff168152602001908152602001600020549050919050565b610701610aed565b61070b6000610dea565b565b6000600760009054906101000a900473ffffffffffffffffffffffffffffffffffffffff16905090565b606060018054610746906122d2565b80601f0160208091040260200160405190810160405280929190818152602001828054610772906122d2565b80156107bf5780601f10610794576101008083540402835291602001916107bf565b820191906000526020600020905b8154815290600101906020018083116107a257829003601f168201915b5050505050905090565b6107db6107d4610ad3565b8383610eb0565b5050565b6107ea8484846104f4565b6107f68484848461101f565b50505050565b6060610807826111d6565b9050919050565b610816610aed565b6000600854905061082783826112e9565b6108318183610b74565b6008600081548092919061084490612399565b91905055507f85a66b9141978db9980f7e0ce3b468cebf4f7999f32b23091c5c03e798b1ba7a83828460405161087c939291906123e1565b60405180910390a1505050565b6000600560008473ffffffffffffffffffffffffffffffffffffffff1673ffffffffffffffffffffffffffffffffffffffff16815260200190815260200160002060008373ffffffffffffffffffffffffffffffffffffffff1673ffffffffffffffffffffffffffffffffffffffff16815260200190815260200160002060009054906101000a900460ff16905092915050565b6000600854905090565b61092f610aed565b600073ffffffffffffffffffffffffffffffffffffffff168173ffffffffffffffffffffffffffffffffffffffff16036109a15760006040517f1e4fbdf70000000000000000000000000000000000000000000000000000000081526004016109989190611db5565b60405180910390fd5b6109aa81610dea565b50565b6000634906490660e01b7bffffffffffffffffffffffffffffffffffffffffffffffffffffffff1916827bffffffffffffffffffffffffffffffffffffffffffffffffffffffff19161480610a075750610a0682611307565b5b9050919050565b600080610a1a836113e9565b9050600073ffffffffffffffffffffffffffffffffffffffff168173ffffffffffffffffffffffffffffffffffffffff1603610a8d57826040517f7e273289000000000000000000000000000000000000000000000000000000008152600401610a84919061205c565b60405180910390fd5b80915050919050565b60006004600083815260200190815260200160002060009054906101000a900473ffffffffffffffffffffffffffffffffffffffff169050919050565b600033905090565b610ae88383836001611426565b505050565b610af5610ad3565b73ffffffffffffffffffffffffffffffffffffffff16610b1361070d565b73ffffffffffffffffffffffffffffffffffffffff1614610b7257610b36610ad3565b6040517f118cdaa7000000000000000000000000000000000000000000000000000000008152600401610b699190611db5565b60405180910390fd5b565b80600660008481526020019081526020016000209081610b9491906125cb565b507ff8e1a15aba9398e019f0b49df1a4fde98ee17ae345cb5f6b5e2c27f5033e8ce782604051610bc4919061205c565b60405180910390a15050565b600080610bdc846113e9565b9050600073ffffffffffffffffffffffffffffffffffffffff168373ffffffffffffffffffffffffffffffffffffffff1614610c1e57610c1d8184866115eb565b5b600073ffffffffffffffffffffffffffffffffffffffff168173ffffffffffffffffffffffffffffffffffffffff1614610caf57610c60600085600080611426565b6001600360008373ffffffffffffffffffffffffffffffffffffffff1673ffffffffffffffffffffffffffffffffffffffff168152602001908152602001600020600082825403925050819055505b600073ffffffffffffffffffffffffffffffffffffffff168573ffffffffffffffffffffffffffffffffffffffff1614610d32576001600360008773ffffffffffffffffffffffffffffffffffffffff1673ffffffffffffffffffffffffffffffffffffffff168152602001908152602001600020600082825401925050819055505b846002600086815260200190815260200160002060006101000a81548173ffffffffffffffffffffffffffffffffffffffff021916908373ffffffffffffffffffffffffffffffffffffffff160217905550838573ffffffffffffffffffffffffffffffffffffffff168273ffffffffffffffffffffffffffffffffffffffff167fddf252ad1be2c89b69c2b068fc378daa952ba7f163c4a11628f55a4df523b3ef60405160405180910390a4809150509392505050565b6000600760009054906101000a900473ffffffffffffffffffffffffffffffffffffffff16905081600760006101000a81548173ffffffffffffffffffffffffffffffffffffffff021916908373ffffffffffffffffffffffffffffffffffffffff1602179055508173ffffffffffffffffffffffffffffffffffffffff168173ffffffffffffffffffffffffffffffffffffffff167f8be0079c531659141344cd1fd0a4f28419497f9722a3daafe3b4186f6b6457e060405160405180910390a35050565b600073ffffffffffffffffffffffffffffffffffffffff168273ffffffffffffffffffffffffffffffffffffffff1603610f2157816040517f5b08ba18000000000000000000000000000000000000000000000000000000008152600401610f189190611db5565b60405180910390fd5b80600560008573ffffffffffffffffffffffffffffffffffffffff1673ffffffffffffffffffffffffffffffffffffffff16815260200190815260200160002060008473ffffffffffffffffffffffffffffffffffffffff1673ffffffffffffffffffffffffffffffffffffffff16815260200190815260200160002060006101000a81548160ff0219169083151502179055508173ffffffffffffffffffffffffffffffffffffffff168373ffffffffffffffffffffffffffffffffffffffff167f17307eab39ab6107e8899845ad3d59bd9653f200f220920489ca2b5937696c31836040516110129190611c44565b60405180910390a3505050565b60008373ffffffffffffffffffffffffffffffffffffffff163b11156111d0578273ffffffffffffffffffffffffffffffffffffffff1663150b7a02611063610ad3565b8685856040518563ffffffff1660e01b815260040161108594939291906126f2565b6020604051808303816000875af19250505080156110c157506040513d601f19601f820116820180604052508101906110be9190612753565b60015b611145573d80600081146110f1576040519150601f19603f3d011682016040523d82523d6000602084013e6110f6565b606091505b50600081510361113d57836040517f64a0ae920000000000000000000000000000000000000000000000000000000081526004016111349190611db5565b60405180910390fd5b805181602001fd5b63150b7a0260e01b7bffffffffffffffffffffffffffffffffffffffffffffffffffffffff1916817bffffffffffffffffffffffffffffffffffffffffffffffffffffffff1916146111ce57836040517f64a0ae920000000000000000000000000000000000000000000000000000000081526004016111c59190611db5565b60405180910390fd5b505b50505050565b60606111e182610a0e565b506000600660008481526020019081526020016000208054611202906122d2565b80601f016020809104026020016040519081016040528092919081815260200182805461122e906122d2565b801561127b5780601f106112505761010080835404028352916020019161127b565b820191906000526020600020905b81548152906001019060200180831161125e57829003601f168201915b50505050509050600061128c6116af565b905060008151036112a15781925050506112e4565b6000825111156112d65780826040516020016112be9291906127bc565b604051602081830303815290604052925050506112e4565b6112df846116c6565b925050505b919050565b61130382826040518060200160405280600081525061172f565b5050565b60007f80ac58cd000000000000000000000000000000000000000000000000000000007bffffffffffffffffffffffffffffffffffffffffffffffffffffffff1916827bffffffffffffffffffffffffffffffffffffffffffffffffffffffff191614806113d257507f5b5e139f000000000000000000000000000000000000000000000000000000007bffffffffffffffffffffffffffffffffffffffffffffffffffffffff1916827bffffffffffffffffffffffffffffffffffffffffffffffffffffffff1916145b806113e257506113e18261174b565b5b9050919050565b60006002600083815260200190815260200160002060009054906101000a900473ffffffffffffffffffffffffffffffffffffffff169050919050565b808061145f5750600073ffffffffffffffffffffffffffffffffffffffff168273ffffffffffffffffffffffffffffffffffffffff1614155b1561159357600061146f84610a0e565b9050600073ffffffffffffffffffffffffffffffffffffffff168373ffffffffffffffffffffffffffffffffffffffff16141580156114da57508273ffffffffffffffffffffffffffffffffffffffff168173ffffffffffffffffffffffffffffffffffffffff1614155b80156114ed57506114eb8184610889565b155b1561152f57826040517fa9fbf51f0000000000000000000000000000000000000000000000000000000081526004016115269190611db5565b60405180910390fd5b811561159157838573ffffffffffffffffffffffffffffffffffffffff168273ffffffffffffffffffffffffffffffffffffffff167f8c5be1e5ebec7d5bd14f71427d1e84f3dd0314c0f7b2291e5b200ac8c7c3b92560405160405180910390a45b505b836004600085815260200190815260200160002060006101000a81548173ffffffffffffffffffffffffffffffffffffffff021916908373ffffffffffffffffffffffffffffffffffffffff16021790555050505050565b6115f68383836117b5565b6116aa57600073ffffffffffffffffffffffffffffffffffffffff168373ffffffffffffffffffffffffffffffffffffffff160361166b57806040517f7e273289000000000000000000000000000000000000000000000000000000008152600401611662919061205c565b60405180910390fd5b81816040517f177e802f0000000000000000000000000000000000000000000000000000000081526004016116a19291906127e0565b60405180910390fd5b505050565b606060405180602001604052806000815250905090565b60606116d182610a0e565b5060006116dc6116af565b905060008151116116fc5760405180602001604052806000815250611727565b8061170684611876565b6040516020016117179291906127bc565b6040516020818303038152906040525b915050919050565b6117398383611944565b611746600084848461101f565b505050565b60007f01ffc9a7000000000000000000000000000000000000000000000000000000007bffffffffffffffffffffffffffffffffffffffffffffffffffffffff1916827bffffffffffffffffffffffffffffffffffffffffffffffffffffffff1916149050919050565b60008073ffffffffffffffffffffffffffffffffffffffff168373ffffffffffffffffffffffffffffffffffffffff161415801561186d57508273ffffffffffffffffffffffffffffffffffffffff168473ffffffffffffffffffffffffffffffffffffffff16148061182e575061182d8484610889565b5b8061186c57508273ffffffffffffffffffffffffffffffffffffffff1661185483610a96565b73ffffffffffffffffffffffffffffffffffffffff16145b5b90509392505050565b60606000600161188584611a3d565b01905060008167ffffffffffffffff8111156118a4576118a3611e46565b5b6040519080825280601f01601f1916602001820160405280156118d65781602001600182028036833780820191505090505b509050600082602001820190505b600115611939578080600190039150507f3031323334353637383961626364656600000000000000000000000000000000600a86061a8153600a858161192d5761192c612809565b5b049450600085036118e4575b819350505050919050565b600073ffffffffffffffffffffffffffffffffffffffff168273ffffffffffffffffffffffffffffffffffffffff16036119b65760006040517f64a0ae920000000000000000000000000000000000000000000000000000000081526004016119ad9190611db5565b60405180910390fd5b60006119c483836000610bd0565b9050600073ffffffffffffffffffffffffffffffffffffffff168173ffffffffffffffffffffffffffffffffffffffff1614611a385760006040517f73c6ac6e000000000000000000000000000000000000000000000000000000008152600401611a2f9190611db5565b60405180910390fd5b505050565b600080600090507a184f03e93ff9f4daa797ed6e38ed64bf6a1f0100000000000000008310611a9b577a184f03e93ff9f4daa797ed6e38ed64bf6a1f0100000000000000008381611a9157611a90612809565b5b0492506040810190505b6d04ee2d6d415b85acef81000000008310611ad8576d04ee2d6d415b85acef81000000008381611ace57611acd612809565b5b0492506020810190505b662386f26fc100008310611b0757662386f26fc100008381611afd57611afc612809565b5b0492506010810190505b6305f5e1008310611b30576305f5e1008381611b2657611b25612809565b5b0492506008810190505b6127108310611b55576127108381611b4b57611b4a612809565b5b0492506004810190505b60648310611b785760648381611b6e57611b6d612809565b5b0492506002810190505b600a8310611b87576001810190505b80915050919050565b6000604051905090565b600080fd5b600080fd5b60007fffffffff0000000000000000000000000000000000000000000000000000000082169050919050565b611bd981611ba4565b8114611be457600080fd5b50565b600081359050611bf681611bd0565b92915050565b600060208284031215611c1257611c11611b9a565b5b6000611c2084828501611be7565b91505092915050565b60008115159050919050565b611c3e81611c29565b82525050565b6000602082019050611c596000830184611c35565b92915050565b600081519050919050565b600082825260208201905092915050565b60005b83811015611c99578082015181840152602081019050611c7e565b60008484015250505050565b6000601f19601f8301169050919050565b6000611cc182611c5f565b611ccb8185611c6a565b9350611cdb818560208601611c7b565b611ce481611ca5565b840191505092915050565b60006020820190508181036000830152611d098184611cb6565b905092915050565b6000819050919050565b611d2481611d11565b8114611d2f57600080fd5b50565b600081359050611d4181611d1b565b92915050565b600060208284031215611d5d57611d5c611b9a565b5b6000611d6b84828501611d32565b91505092915050565b600073ffffffffffffffffffffffffffffffffffffffff82169050919050565b6000611d9f82611d74565b9050919050565b611daf81611d94565b82525050565b6000602082019050611dca6000830184611da6565b92915050565b611dd981611d94565b8114611de457600080fd5b50565b600081359050611df681611dd0565b92915050565b60008060408385031215611e1357611e12611b9a565b5b6000611e2185828601611de7565b9250506020611e3285828601611d32565b9150509250929050565b600080fd5b600080fd5b7f4e487b7100000000000000000000000000000000000000000000000000000000600052604160045260246000fd5b611e7e82611ca5565b810181811067ffffffffffffffff82111715611e9d57611e9c611e46565b5b80604052505050565b6000611eb0611b90565b9050611ebc8282611e75565b919050565b600067ffffffffffffffff821115611edc57611edb611e46565b5b611ee582611ca5565b9050602081019050919050565b82818337600083830152505050565b6000611f14611f0f84611ec1565b611ea6565b905082815260208101848484011115611f3057611f2f611e41565b5b611f3b848285611ef2565b509392505050565b600082601f830112611f5857611f57611e3c565b5b8135611f68848260208601611f01565b91505092915050565b60008060408385031215611f8857611f87611b9a565b5b6000611f9685828601611d32565b925050602083013567ffffffffffffffff811115611fb757611fb6611b9f565b5b611fc385828601611f43565b9150509250929050565b600080600060608486031215611fe657611fe5611b9a565b5b6000611ff486828701611de7565b935050602061200586828701611de7565b925050604061201686828701611d32565b9150509250925092565b60006020828403121561203657612035611b9a565b5b600061204484828501611de7565b91505092915050565b61205681611d11565b82525050565b6000602082019050612071600083018461204d565b92915050565b61208081611c29565b811461208b57600080fd5b50565b60008135905061209d81612077565b92915050565b600080604083850312156120ba576120b9611b9a565b5b60006120c885828601611de7565b92505060206120d98582860161208e565b9150509250929050565b600067ffffffffffffffff8211156120fe576120fd611e46565b5b61210782611ca5565b9050602081019050919050565b6000612127612122846120e3565b611ea6565b90508281526020810184848401111561214357612142611e41565b5b61214e848285611ef2565b509392505050565b600082601f83011261216b5761216a611e3c565b5b813561217b848260208601612114565b91505092915050565b6000806000806080858703121561219e5761219d611b9a565b5b60006121ac87828801611de7565b94505060206121bd87828801611de7565b93505060406121ce87828801611d32565b925050606085013567ffffffffffffffff8111156121ef576121ee611b9f565b5b6121fb87828801612156565b91505092959194509250565b6000806040838503121561221e5761221d611b9a565b5b600061222c85828601611de7565b925050602083013567ffffffffffffffff81111561224d5761224c611b9f565b5b61225985828601611f43565b9150509250929050565b6000806040838503121561227a57612279611b9a565b5b600061228885828601611de7565b925050602061229985828601611de7565b9150509250929050565b7f4e487b7100000000000000000000000000000000000000000000000000000000600052602260045260246000fd5b600060028204905060018216806122ea57607f821691505b6020821081036122fd576122fc6122a3565b5b50919050565b6000604082019050612318600083018561204d565b818103602083015261232a8184611cb6565b90509392505050565b60006060820190506123486000830186611da6565b612355602083018561204d565b6123626040830184611da6565b949350505050565b7f4e487b7100000000000000000000000000000000000000000000000000000000600052601160045260246000fd5b60006123a482611d11565b91507fffffffffffffffffffffffffffffffffffffffffffffffffffffffffffffffff82036123d6576123d561236a565b5b600182019050919050565b60006060820190506123f66000830186611da6565b612403602083018561204d565b81810360408301526124158184611cb6565b9050949350505050565b60008190508160005260206000209050919050565b60006020601f8301049050919050565b600082821b905092915050565b6000600883026124817fffffffffffffffffffffffffffffffffffffffffffffffffffffffffffffffff82612444565b61248b8683612444565b95508019841693508086168417925050509392505050565b6000819050919050565b60006124c86124c36124be84611d11565b6124a3565b611d11565b9050919050565b6000819050919050565b6124e2836124ad565b6124f66124ee826124cf565b848454612451565b825550505050565b600090565b61250b6124fe565b6125168184846124d9565b505050565b5b8181101561253a5761252f600082612503565b60018101905061251c565b5050565b601f82111561257f576125508161241f565b61255984612434565b81016020851015612568578190505b61257c61257485612434565b83018261251b565b50505b505050565b600082821c905092915050565b60006125a260001984600802612584565b1980831691505092915050565b60006125bb8383612591565b9150826002028217905092915050565b6125d482611c5f565b67ffffffffffffffff8111156125ed576125ec611e46565b5b6125f782546122d2565b61260282828561253e565b600060209050601f8311600181146126355760008415612623578287015190505b61262d85826125af565b865550612695565b601f1984166126438661241f565b60005b8281101561266b57848901518255600182019150602085019450602081019050612646565b868310156126885784890151612684601f891682612591565b8355505b6001600288020188555050505b505050505050565b600081519050919050565b600082825260208201905092915050565b60006126c48261269d565b6126ce81856126a8565b93506126de818560208601611c7b565b6126e781611ca5565b840191505092915050565b60006080820190506127076000830187611da6565b6127146020830186611da6565b612721604083018561204d565b818103606083015261273381846126b9565b905095945050505050565b60008151905061274d81611bd0565b92915050565b60006020828403121561276957612768611b9a565b5b60006127778482850161273e565b91505092915050565b600081905092915050565b600061279682611c5f565b6127a08185612780565b93506127b0818560208601611c7b565b80840191505092915050565b60006127c8828561278b565b91506127d4828461278b565b91508190509392505050565b60006040820190506127f56000830185611da6565b612802602083018461204d565b9392505050565b7f4e487b7100000000000000000000000000000000000000000000000000000000600052601260045260246000fdfea2646970667358221220b3043a4907ab8831c21cf0aba82a72bfc2840080a56cfe40564d2a1f215ae4a964736f6c63430008180033",
  "linkReferences": {},
  "deployedLinkReferences": {}
}